{
  "contractName": "Coin",
  "abi": [
    {
      "constant": true,
      "inputs": [],
      "name": "name",
      "outputs": [
        {
          "name": "",
          "type": "string"
        }
      ],
      "payable": false,
      "stateMutability": "view",
      "type": "function"
    },
    {
      "constant": true,
      "inputs": [],
      "name": "totalSupply",
      "outputs": [
        {
          "name": "",
          "type": "uint256"
        }
      ],
      "payable": false,
      "stateMutability": "view",
      "type": "function"
    },
    {
      "constant": true,
      "inputs": [],
      "name": "decimals",
      "outputs": [
        {
          "name": "",
          "type": "uint8"
        }
      ],
      "payable": false,
      "stateMutability": "view",
      "type": "function"
    },
    {
      "constant": false,
      "inputs": [],
      "name": "unpause",
      "outputs": [],
      "payable": false,
      "stateMutability": "nonpayable",
      "type": "function"
    },
    {
      "constant": true,
      "inputs": [
        {
          "name": "account",
          "type": "address"
        }
      ],
      "name": "isPauser",
      "outputs": [
        {
          "name": "",
          "type": "bool"
        }
      ],
      "payable": false,
      "stateMutability": "view",
      "type": "function"
    },
    {
      "constant": true,
      "inputs": [],
      "name": "paused",
      "outputs": [
        {
          "name": "",
          "type": "bool"
        }
      ],
      "payable": false,
      "stateMutability": "view",
      "type": "function"
    },
    {
      "constant": false,
      "inputs": [],
      "name": "renouncePauser",
      "outputs": [],
      "payable": false,
      "stateMutability": "nonpayable",
      "type": "function"
    },
    {
      "constant": true,
      "inputs": [
        {
          "name": "account",
          "type": "address"
        }
      ],
      "name": "balanceOf",
      "outputs": [
        {
          "name": "",
          "type": "uint256"
        }
      ],
      "payable": false,
      "stateMutability": "view",
      "type": "function"
    },
    {
      "constant": false,
      "inputs": [],
      "name": "renounceOwnership",
      "outputs": [],
      "payable": false,
      "stateMutability": "nonpayable",
      "type": "function"
    },
    {
      "constant": false,
      "inputs": [
        {
          "name": "account",
          "type": "address"
        }
      ],
      "name": "addPauser",
      "outputs": [],
      "payable": false,
      "stateMutability": "nonpayable",
      "type": "function"
    },
    {
      "constant": false,
      "inputs": [],
      "name": "destroy",
      "outputs": [],
      "payable": false,
      "stateMutability": "nonpayable",
      "type": "function"
    },
    {
      "constant": false,
      "inputs": [],
      "name": "pause",
      "outputs": [],
      "payable": false,
      "stateMutability": "nonpayable",
      "type": "function"
    },
    {
      "constant": true,
      "inputs": [],
      "name": "owner",
      "outputs": [
        {
          "name": "",
          "type": "address"
        }
      ],
      "payable": false,
      "stateMutability": "view",
      "type": "function"
    },
    {
      "constant": true,
      "inputs": [],
      "name": "isOwner",
      "outputs": [
        {
          "name": "",
          "type": "bool"
        }
      ],
      "payable": false,
      "stateMutability": "view",
      "type": "function"
    },
    {
      "constant": true,
      "inputs": [],
      "name": "symbol",
      "outputs": [
        {
          "name": "",
          "type": "string"
        }
      ],
      "payable": false,
      "stateMutability": "view",
      "type": "function"
    },
    {
      "constant": false,
      "inputs": [
        {
          "name": "account",
          "type": "address"
        }
      ],
      "name": "addMinter",
      "outputs": [],
      "payable": false,
      "stateMutability": "nonpayable",
      "type": "function"
    },
    {
      "constant": false,
      "inputs": [],
      "name": "renounceMinter",
      "outputs": [],
      "payable": false,
      "stateMutability": "nonpayable",
      "type": "function"
    },
    {
      "constant": true,
      "inputs": [
        {
          "name": "account",
          "type": "address"
        }
      ],
      "name": "isMinter",
      "outputs": [
        {
          "name": "",
          "type": "bool"
        }
      ],
      "payable": false,
      "stateMutability": "view",
      "type": "function"
    },
    {
      "constant": true,
      "inputs": [
        {
          "name": "owner",
          "type": "address"
        },
        {
          "name": "spender",
          "type": "address"
        }
      ],
      "name": "allowance",
      "outputs": [
        {
          "name": "",
          "type": "uint256"
        }
      ],
      "payable": false,
      "stateMutability": "view",
      "type": "function"
    },
    {
      "constant": false,
      "inputs": [
        {
          "name": "newOwner",
          "type": "address"
        }
      ],
      "name": "transferOwnership",
      "outputs": [],
      "payable": false,
      "stateMutability": "nonpayable",
      "type": "function"
    },
    {
      "inputs": [],
      "payable": false,
      "stateMutability": "nonpayable",
      "type": "constructor"
    },
    {
      "anonymous": false,
      "inputs": [
        {
          "indexed": true,
          "name": "from",
          "type": "address"
        },
        {
          "indexed": false,
          "name": "value",
          "type": "uint256"
        }
      ],
      "name": "EscrowCoin",
      "type": "event"
    },
    {
      "anonymous": false,
      "inputs": [
        {
          "indexed": true,
          "name": "from",
          "type": "address"
        },
        {
          "indexed": true,
          "name": "to",
          "type": "address"
        },
        {
          "indexed": false,
          "name": "value",
          "type": "uint256"
        }
      ],
      "name": "UnescrowCoin",
      "type": "event"
    },
    {
      "anonymous": false,
      "inputs": [
        {
          "indexed": true,
          "name": "account",
          "type": "address"
        }
      ],
      "name": "MinterAdded",
      "type": "event"
    },
    {
      "anonymous": false,
      "inputs": [
        {
          "indexed": true,
          "name": "account",
          "type": "address"
        }
      ],
      "name": "MinterRemoved",
      "type": "event"
    },
    {
      "anonymous": false,
      "inputs": [
        {
          "indexed": false,
          "name": "account",
          "type": "address"
        }
      ],
      "name": "Paused",
      "type": "event"
    },
    {
      "anonymous": false,
      "inputs": [
        {
          "indexed": false,
          "name": "account",
          "type": "address"
        }
      ],
      "name": "Unpaused",
      "type": "event"
    },
    {
      "anonymous": false,
      "inputs": [
        {
          "indexed": true,
          "name": "account",
          "type": "address"
        }
      ],
      "name": "PauserAdded",
      "type": "event"
    },
    {
      "anonymous": false,
      "inputs": [
        {
          "indexed": true,
          "name": "account",
          "type": "address"
        }
      ],
      "name": "PauserRemoved",
      "type": "event"
    },
    {
      "anonymous": false,
      "inputs": [
        {
          "indexed": true,
          "name": "previousOwner",
          "type": "address"
        },
        {
          "indexed": true,
          "name": "newOwner",
          "type": "address"
        }
      ],
      "name": "OwnershipTransferred",
      "type": "event"
    },
    {
      "anonymous": false,
      "inputs": [
        {
          "indexed": true,
          "name": "from",
          "type": "address"
        },
        {
          "indexed": true,
          "name": "to",
          "type": "address"
        },
        {
          "indexed": false,
          "name": "value",
          "type": "uint256"
        }
      ],
      "name": "Transfer",
      "type": "event"
    },
    {
      "anonymous": false,
      "inputs": [
        {
          "indexed": true,
          "name": "owner",
          "type": "address"
        },
        {
          "indexed": true,
          "name": "spender",
          "type": "address"
        },
        {
          "indexed": false,
          "name": "value",
          "type": "uint256"
        }
      ],
      "name": "Approval",
      "type": "event"
    },
    {
      "constant": false,
      "inputs": [
        {
          "name": "",
          "type": "address"
        },
        {
          "name": "",
          "type": "uint256"
        }
      ],
      "name": "approve",
      "outputs": [
        {
          "name": "",
          "type": "bool"
        }
      ],
      "payable": false,
      "stateMutability": "nonpayable",
      "type": "function"
    },
    {
      "constant": false,
      "inputs": [
        {
          "name": "",
          "type": "address"
        },
        {
          "name": "",
          "type": "uint256"
        }
      ],
      "name": "increaseAllowance",
      "outputs": [
        {
          "name": "",
          "type": "bool"
        }
      ],
      "payable": false,
      "stateMutability": "nonpayable",
      "type": "function"
    },
    {
      "constant": false,
      "inputs": [
        {
          "name": "",
          "type": "address"
        },
        {
          "name": "",
          "type": "uint256"
        }
      ],
      "name": "decreaseAllowance",
      "outputs": [
        {
          "name": "",
          "type": "bool"
        }
      ],
      "payable": false,
      "stateMutability": "nonpayable",
      "type": "function"
    },
    {
      "constant": false,
      "inputs": [
        {
          "name": "",
          "type": "address"
        },
        {
          "name": "",
          "type": "uint256"
        }
      ],
      "name": "transfer",
      "outputs": [
        {
          "name": "",
          "type": "bool"
        }
      ],
      "payable": false,
      "stateMutability": "nonpayable",
      "type": "function"
    },
    {
      "constant": false,
      "inputs": [
        {
          "name": "",
          "type": "address"
        },
        {
          "name": "",
          "type": "address"
        },
        {
          "name": "",
          "type": "uint256"
        }
      ],
      "name": "transferFrom",
      "outputs": [
        {
          "name": "",
          "type": "bool"
        }
      ],
      "payable": false,
      "stateMutability": "nonpayable",
      "type": "function"
    },
    {
      "constant": false,
      "inputs": [
        {
          "name": "account",
          "type": "address"
        },
        {
          "name": "amount",
          "type": "uint256"
        }
      ],
      "name": "mint",
      "outputs": [
        {
          "name": "",
          "type": "bool"
        }
      ],
      "payable": false,
      "stateMutability": "nonpayable",
      "type": "function"
    },
    {
      "constant": false,
      "inputs": [
        {
          "name": "account",
          "type": "address"
        },
        {
          "name": "amount",
          "type": "uint256"
        }
      ],
      "name": "burn",
      "outputs": [
        {
          "name": "",
          "type": "bool"
        }
      ],
      "payable": false,
      "stateMutability": "nonpayable",
      "type": "function"
    },
    {
      "constant": false,
      "inputs": [
        {
          "name": "account",
          "type": "address"
        },
        {
          "name": "amount",
          "type": "uint256"
        }
      ],
      "name": "escrow",
      "outputs": [
        {
          "name": "",
          "type": "bool"
        }
      ],
      "payable": false,
      "stateMutability": "nonpayable",
      "type": "function"
    },
    {
      "constant": false,
      "inputs": [
        {
          "name": "account",
          "type": "address"
        },
        {
          "name": "recipient",
          "type": "address"
        },
        {
          "name": "amount",
          "type": "uint256"
        }
      ],
      "name": "unescrow",
      "outputs": [
        {
          "name": "",
          "type": "bool"
        }
      ],
      "payable": false,
      "stateMutability": "nonpayable",
      "type": "function"
    },
    {
      "constant": true,
      "inputs": [
        {
          "name": "account",
          "type": "address"
        }
      ],
      "name": "escrowOf",
      "outputs": [
        {
          "name": "",
          "type": "uint256"
        }
      ],
      "payable": false,
      "stateMutability": "view",
      "type": "function"
    }
  ],
  "bytecode": "0x60806040523480156200001157600080fd5b506040518060400160405280600c81526020017f506f746c75636b20436f696e00000000000000000000000000000000000000008152506040518060400160405280600481526020017f504f54430000000000000000000000000000000000000000000000000000000081525060028260039080519060200190620000989291906200045f565b508160049080519060200190620000b19291906200045f565b5080600560006101000a81548160ff021916908360ff16021790555050505033600560016101000a81548173ffffffffffffffffffffffffffffffffffffffff021916908373ffffffffffffffffffffffffffffffffffffffff160217905550600560019054906101000a900473ffffffffffffffffffffffffffffffffffffffff1673ffffffffffffffffffffffffffffffffffffffff16600073ffffffffffffffffffffffffffffffffffffffff167f8be0079c531659141344cd1fd0a4f28419497f9722a3daafe3b4186f6b6457e060405160405180910390a36200019f33620001d960201b60201c565b6000600760006101000a81548160ff021916908315150217905550620001cb336200023a60201b60201c565b60016009819055506200050e565b620001f48160066200029b60201b6200282a1790919060201c565b8073ffffffffffffffffffffffffffffffffffffffff167f6719d08c1888103bea251a4ed56406bd0c3e69723c8a1686e017e7bbe159b6f860405160405180910390a250565b620002558160086200029b60201b6200282a1790919060201c565b8073ffffffffffffffffffffffffffffffffffffffff167f6ae172837ea30b801fbfcdd4108aa1d5bf8ff775444fd70256b44e6bf3dfc3f660405160405180910390a250565b620002ad82826200037f60201b60201c565b1562000321576040517f08c379a000000000000000000000000000000000000000000000000000000000815260040180806020018281038252601f8152602001807f526f6c65733a206163636f756e7420616c72656164792068617320726f6c650081525060200191505060405180910390fd5b60018260000160008373ffffffffffffffffffffffffffffffffffffffff1673ffffffffffffffffffffffffffffffffffffffff16815260200190815260200160002060006101000a81548160ff0219169083151502179055505050565b60008073ffffffffffffffffffffffffffffffffffffffff168273ffffffffffffffffffffffffffffffffffffffff16141562000408576040517f08c379a000000000000000000000000000000000000000000000000000000000815260040180806020018281038252602281526020018062002f396022913960400191505060405180910390fd5b8260000160008373ffffffffffffffffffffffffffffffffffffffff1673ffffffffffffffffffffffffffffffffffffffff16815260200190815260200160002060009054906101000a900460ff16905092915050565b828054600181600116156101000203166002900490600052602060002090601f016020900481019282601f10620004a257805160ff1916838001178555620004d3565b82800160010185558215620004d3579182015b82811115620004d2578251825591602001919060010190620004b5565b5b509050620004e29190620004e6565b5090565b6200050b91905b8082111562000507576000816000905550600101620004ed565b5090565b90565b612a1b806200051e6000396000f3fe608060405234801561001057600080fd5b50600436106101da5760003560e01c806382dc1ec41161010457806398650275116100a2578063aa271e1a11610071578063aa271e1a14610903578063dd62ed3e1461095f578063e038c3da146109d7578063f2fde38b14610a2f576101da565b806398650275146107c75780639dc29fac146107d1578063a457c2d714610837578063a9059cbb1461089d576101da565b80638da5cb5b116100de5780638da5cb5b146106945780638f32d59b146106de57806395d89b4114610700578063983b2d5614610783576101da565b806382dc1ec41461063c57806383197ef0146106805780638456cb591461068a576101da565b80633f4ba83a1161017c5780636ef8d66d1161014b5780636ef8d66d1461054a57806370a0823114610554578063715018a6146105ac578063819f67c9146105b6576101da565b80633f4ba83a1461045c57806340c10f191461046657806346fbf68e146104cc5780635c975abb14610528576101da565b806323b872dd116101b857806323b872dd146102e65780632efd5b061461036c578063313ce567146103d257806339509351146103f6576101da565b806306fdde03146101df578063095ea7b31461026257806318160ddd146102c8575b600080fd5b6101e7610a73565b6040518080602001828103825283818151815260200191508051906020019080838360005b8381101561022757808201518184015260208101905061020c565b50505050905090810190601f1680156102545780820380516001836020036101000a031916815260200191505b509250505060405180910390f35b6102ae6004803603604081101561027857600080fd5b81019080803573ffffffffffffffffffffffffffffffffffffffff16906020019092919080359060200190929190505050610b15565b604051808215151515815260200191505060405180910390f35b6102d0610b85565b6040518082815260200191505060405180910390f35b610352600480360360608110156102fc57600080fd5b81019080803573ffffffffffffffffffffffffffffffffffffffff169060200190929190803573ffffffffffffffffffffffffffffffffffffffff16906020019092919080359060200190929190505050610b8f565b604051808215151515815260200191505060405180910390f35b6103b86004803603604081101561038257600080fd5b81019080803573ffffffffffffffffffffffffffffffffffffffff16906020019092919080359060200190929190505050610bff565b604051808215151515815260200191505060405180910390f35b6103da610e7a565b604051808260ff1660ff16815260200191505060405180910390f35b6104426004803603604081101561040c57600080fd5b81019080803573ffffffffffffffffffffffffffffffffffffffff16906020019092919080359060200190929190505050610e91565b604051808215151515815260200191505060405180910390f35b610464610f01565b005b6104b26004803603604081101561047c57600080fd5b81019080803573ffffffffffffffffffffffffffffffffffffffff16906020019092919080359060200190929190505050611061565b604051808215151515815260200191505060405180910390f35b61050e600480360360208110156104e257600080fd5b81019080803573ffffffffffffffffffffffffffffffffffffffff1690602001909291905050506111f9565b604051808215151515815260200191505060405180910390f35b610530611216565b604051808215151515815260200191505060405180910390f35b61055261122d565b005b6105966004803603602081101561056a57600080fd5b81019080803573ffffffffffffffffffffffffffffffffffffffff169060200190929190505050611238565b6040518082815260200191505060405180910390f35b6105b4611280565b005b610622600480360360608110156105cc57600080fd5b81019080803573ffffffffffffffffffffffffffffffffffffffff169060200190929190803573ffffffffffffffffffffffffffffffffffffffff169060200190929190803590602001909291905050506113bb565b604051808215151515815260200191505060405180910390f35b61067e6004803603602081101561065257600080fd5b81019080803573ffffffffffffffffffffffffffffffffffffffff1690602001909291905050506116e2565b005b61068861174c565b005b6106926117eb565b005b61069c61194c565b604051808273ffffffffffffffffffffffffffffffffffffffff1673ffffffffffffffffffffffffffffffffffffffff16815260200191505060405180910390f35b6106e6611976565b604051808215151515815260200191505060405180910390f35b6107086119ce565b6040518080602001828103825283818151815260200191508051906020019080838360005b8381101561074857808201518184015260208101905061072d565b50505050905090810190601f1680156107755780820380516001836020036101000a031916815260200191505b509250505060405180910390f35b6107c56004803603602081101561079957600080fd5b81019080803573ffffffffffffffffffffffffffffffffffffffff169060200190929190505050611a70565b005b6107cf611ada565b005b61081d600480360360408110156107e757600080fd5b81019080803573ffffffffffffffffffffffffffffffffffffffff16906020019092919080359060200190929190505050611ae5565b604051808215151515815260200191505060405180910390f35b6108836004803603604081101561084d57600080fd5b81019080803573ffffffffffffffffffffffffffffffffffffffff16906020019092919080359060200190929190505050611c7d565b604051808215151515815260200191505060405180910390f35b6108e9600480360360408110156108b357600080fd5b81019080803573ffffffffffffffffffffffffffffffffffffffff16906020019092919080359060200190929190505050611ced565b604051808215151515815260200191505060405180910390f35b6109456004803603602081101561091957600080fd5b81019080803573ffffffffffffffffffffffffffffffffffffffff169060200190929190505050611d5d565b604051808215151515815260200191505060405180910390f35b6109c16004803603604081101561097557600080fd5b81019080803573ffffffffffffffffffffffffffffffffffffffff169060200190929190803573ffffffffffffffffffffffffffffffffffffffff169060200190929190505050611d7a565b6040518082815260200191505060405180910390f35b610a19600480360360208110156109ed57600080fd5b81019080803573ffffffffffffffffffffffffffffffffffffffff169060200190929190505050611e01565b6040518082815260200191505060405180910390f35b610a7160048036036020811015610a4557600080fd5b81019080803573ffffffffffffffffffffffffffffffffffffffff169060200190929190505050611ede565b005b606060038054600181600116156101000203166002900480601f016020809104026020016040519081016040528092919081815260200182805460018160011615610100020316600290048015610b0b5780601f10610ae057610100808354040283529160200191610b0b565b820191906000526020600020905b815481529060010190602001808311610aee57829003601f168201915b5050505050905090565b60006040517f08c379a00000000000000000000000000000000000000000000000000000000081526004018080602001828103825260178152602001807f416c6c6f77616e636573206e6f7420616c6c6f7765642100000000000000000081525060200191505060405180910390fd5b6000600254905090565b60006040517f08c379a00000000000000000000000000000000000000000000000000000000081526004018080602001828103825260168152602001807f5472616e7366657273206e6f7420616c6c6f776564210000000000000000000081525060200191505060405180910390fd5b6000610c0a33611d5d565b610c5f576040517f08c379a000000000000000000000000000000000000000000000000000000000815260040180806020018281038252603081526020018061295c6030913960400191505060405180910390fd5b60016009600082825401925050819055506000600954905083610c978173ffffffffffffffffffffffffffffffffffffffff16611f64565b15610d0a576040517f08c379a00000000000000000000000000000000000000000000000000000000081526004018080602001828103825260148152602001807f4163636f756e7420697320636f6e74726163742100000000000000000000000081525060200191505060405180910390fd5b610d148585611f77565b610d6684600a60008873ffffffffffffffffffffffffffffffffffffffff1673ffffffffffffffffffffffffffffffffffffffff1681526020019081526020016000205461211590919063ffffffff16565b600a60008773ffffffffffffffffffffffffffffffffffffffff1673ffffffffffffffffffffffffffffffffffffffff168152602001908152602001600020819055508473ffffffffffffffffffffffffffffffffffffffff167f46b180ed06710b8465c638080ae360b3d5c541032a217ac92a142b1ecd388afc856040518082815260200191505060405180910390a260019250506009548114610e73576040517f08c379a000000000000000000000000000000000000000000000000000000000815260040180806020018281038252601f8152602001807f5265656e7472616e637947756172643a207265656e7472616e742063616c6c0081525060200191505060405180910390fd5b5092915050565b6000600560009054906101000a900460ff16905090565b60006040517f08c379a00000000000000000000000000000000000000000000000000000000081526004018080602001828103825260178152602001807f416c6c6f77616e636573206e6f7420616c6c6f7765642100000000000000000081525060200191505060405180910390fd5b610f0a336111f9565b610f5f576040517f08c379a00000000000000000000000000000000000000000000000000000000081526004018080602001828103825260308152602001806129066030913960400191505060405180910390fd5b600760009054906101000a900460ff16610fe1576040517f08c379a00000000000000000000000000000000000000000000000000000000081526004018080602001828103825260148152602001807f5061757361626c653a206e6f742070617573656400000000000000000000000081525060200191505060405180910390fd5b6000600760006101000a81548160ff0219169083151502179055507f5db9ee0a495bf2e6ff9c91a7834c1ba4fdd244a5e8aa4e537bd38aeae4b073aa33604051808273ffffffffffffffffffffffffffffffffffffffff1673ffffffffffffffffffffffffffffffffffffffff16815260200191505060405180910390a1565b600061106c33611d5d565b6110c1576040517f08c379a000000000000000000000000000000000000000000000000000000000815260040180806020018281038252603081526020018061295c6030913960400191505060405180910390fd5b600160096000828254019250508190555060006009549050836110f98173ffffffffffffffffffffffffffffffffffffffff16611f64565b1561116c576040517f08c379a00000000000000000000000000000000000000000000000000000000081526004018080602001828103825260148152602001807f4163636f756e7420697320636f6e74726163742100000000000000000000000081525060200191505060405180910390fd5b611176858561219d565b600192505060095481146111f2576040517f08c379a000000000000000000000000000000000000000000000000000000000815260040180806020018281038252601f8152602001807f5265656e7472616e637947756172643a207265656e7472616e742063616c6c0081525060200191505060405180910390fd5b5092915050565b600061120f82600661235890919063ffffffff16565b9050919050565b6000600760009054906101000a900460ff16905090565b61123633612436565b565b60008060008373ffffffffffffffffffffffffffffffffffffffff1673ffffffffffffffffffffffffffffffffffffffff168152602001908152602001600020549050919050565b611288611976565b6112fa576040517f08c379a00000000000000000000000000000000000000000000000000000000081526004018080602001828103825260208152602001807f4f776e61626c653a2063616c6c6572206973206e6f7420746865206f776e657281525060200191505060405180910390fd5b600073ffffffffffffffffffffffffffffffffffffffff16600560019054906101000a900473ffffffffffffffffffffffffffffffffffffffff1673ffffffffffffffffffffffffffffffffffffffff167f8be0079c531659141344cd1fd0a4f28419497f9722a3daafe3b4186f6b6457e060405160405180910390a36000600560016101000a81548173ffffffffffffffffffffffffffffffffffffffff021916908373ffffffffffffffffffffffffffffffffffffffff160217905550565b60006113c633611d5d565b61141b576040517f08c379a000000000000000000000000000000000000000000000000000000000815260040180806020018281038252603081526020018061295c6030913960400191505060405180910390fd5b600160096000828254019250508190555060006009549050846114538173ffffffffffffffffffffffffffffffffffffffff16611f64565b156114c6576040517f08c379a00000000000000000000000000000000000000000000000000000000081526004018080602001828103825260148152602001807f4163636f756e7420697320636f6e74726163742100000000000000000000000081525060200191505060405180910390fd5b846114e68173ffffffffffffffffffffffffffffffffffffffff16611f64565b15611559576040517f08c379a00000000000000000000000000000000000000000000000000000000081526004018080602001828103825260148152602001807f4163636f756e7420697320636f6e74726163742100000000000000000000000081525060200191505060405180910390fd5b6115ab85600a60008a73ffffffffffffffffffffffffffffffffffffffff1673ffffffffffffffffffffffffffffffffffffffff1681526020019081526020016000205461249090919063ffffffff16565b600a60008973ffffffffffffffffffffffffffffffffffffffff1673ffffffffffffffffffffffffffffffffffffffff168152602001908152602001600020819055506115f8868661219d565b8573ffffffffffffffffffffffffffffffffffffffff168773ffffffffffffffffffffffffffffffffffffffff167fe5ffc4dc7c4d2c4de00c81b009c90f01d54053d43e6bcb0d09f06663ad461ff2876040518082815260200191505060405180910390a360019350505060095481146116da576040517f08c379a000000000000000000000000000000000000000000000000000000000815260040180806020018281038252601f8152602001807f5265656e7472616e637947756172643a207265656e7472616e742063616c6c0081525060200191505060405180910390fd5b509392505050565b6116eb336111f9565b611740576040517f08c379a00000000000000000000000000000000000000000000000000000000081526004018080602001828103825260308152602001806129066030913960400191505060405180910390fd5b61174981612519565b50565b611754611976565b6117c6576040517f08c379a00000000000000000000000000000000000000000000000000000000081526004018080602001828103825260208152602001807f4f776e61626c653a2063616c6c6572206973206e6f7420746865206f776e657281525060200191505060405180910390fd5b60006117d061194c565b90508073ffffffffffffffffffffffffffffffffffffffff16ff5b6117f4336111f9565b611849576040517f08c379a00000000000000000000000000000000000000000000000000000000081526004018080602001828103825260308152602001806129066030913960400191505060405180910390fd5b600760009054906101000a900460ff16156118cc576040517f08c379a00000000000000000000000000000000000000000000000000000000081526004018080602001828103825260108152602001807f5061757361626c653a207061757365640000000000000000000000000000000081525060200191505060405180910390fd5b6001600760006101000a81548160ff0219169083151502179055507f62e78cea01bee320cd4e420270b5ea74000d11b0c9f74754ebdbfc544b05a25833604051808273ffffffffffffffffffffffffffffffffffffffff1673ffffffffffffffffffffffffffffffffffffffff16815260200191505060405180910390a1565b6000600560019054906101000a900473ffffffffffffffffffffffffffffffffffffffff16905090565b6000600560019054906101000a900473ffffffffffffffffffffffffffffffffffffffff1673ffffffffffffffffffffffffffffffffffffffff163373ffffffffffffffffffffffffffffffffffffffff1614905090565b606060048054600181600116156101000203166002900480601f016020809104026020016040519081016040528092919081815260200182805460018160011615610100020316600290048015611a665780601f10611a3b57610100808354040283529160200191611a66565b820191906000526020600020905b815481529060010190602001808311611a4957829003601f168201915b5050505050905090565b611a7933611d5d565b611ace576040517f08c379a000000000000000000000000000000000000000000000000000000000815260040180806020018281038252603081526020018061295c6030913960400191505060405180910390fd5b611ad781612573565b50565b611ae3336125cd565b565b6000611af033611d5d565b611b45576040517f08c379a000000000000000000000000000000000000000000000000000000000815260040180806020018281038252603081526020018061295c6030913960400191505060405180910390fd5b60016009600082825401925050819055506000600954905083611b7d8173ffffffffffffffffffffffffffffffffffffffff16611f64565b15611bf0576040517f08c379a00000000000000000000000000000000000000000000000000000000081526004018080602001828103825260148152602001807f4163636f756e7420697320636f6e74726163742100000000000000000000000081525060200191505060405180910390fd5b611bfa8585611f77565b60019250506009548114611c76576040517f08c379a000000000000000000000000000000000000000000000000000000000815260040180806020018281038252601f8152602001807f5265656e7472616e637947756172643a207265656e7472616e742063616c6c0081525060200191505060405180910390fd5b5092915050565b60006040517f08c379a00000000000000000000000000000000000000000000000000000000081526004018080602001828103825260178152602001807f416c6c6f77616e636573206e6f7420616c6c6f7765642100000000000000000081525060200191505060405180910390fd5b60006040517f08c379a00000000000000000000000000000000000000000000000000000000081526004018080602001828103825260168152602001807f5472616e7366657273206e6f7420616c6c6f776564210000000000000000000081525060200191505060405180910390fd5b6000611d7382600861235890919063ffffffff16565b9050919050565b6000600160008473ffffffffffffffffffffffffffffffffffffffff1673ffffffffffffffffffffffffffffffffffffffff16815260200190815260200160002060008373ffffffffffffffffffffffffffffffffffffffff1673ffffffffffffffffffffffffffffffffffffffff16815260200190815260200160002054905092915050565b600081611e238173ffffffffffffffffffffffffffffffffffffffff16611f64565b15611e96576040517f08c379a00000000000000000000000000000000000000000000000000000000081526004018080602001828103825260148152602001807f4163636f756e7420697320636f6e74726163742100000000000000000000000081525060200191505060405180910390fd5b600a60008473ffffffffffffffffffffffffffffffffffffffff1673ffffffffffffffffffffffffffffffffffffffff16815260200190815260200160002054915050919050565b611ee6611976565b611f58576040517f08c379a00000000000000000000000000000000000000000000000000000000081526004018080602001828103825260208152602001807f4f776e61626c653a2063616c6c6572206973206e6f7420746865206f776e657281525060200191505060405180910390fd5b611f6181612627565b50565b600080823b905060008111915050919050565b600073ffffffffffffffffffffffffffffffffffffffff168273ffffffffffffffffffffffffffffffffffffffff161415611ffd576040517f08c379a00000000000000000000000000000000000000000000000000000000081526004018080602001828103825260218152602001806129cf6021913960400191505060405180910390fd5b6120128160025461249090919063ffffffff16565b600281905550612069816000808573ffffffffffffffffffffffffffffffffffffffff1673ffffffffffffffffffffffffffffffffffffffff1681526020019081526020016000205461249090919063ffffffff16565b6000808473ffffffffffffffffffffffffffffffffffffffff1673ffffffffffffffffffffffffffffffffffffffff16815260200190815260200160002081905550600073ffffffffffffffffffffffffffffffffffffffff168273ffffffffffffffffffffffffffffffffffffffff167fddf252ad1be2c89b69c2b068fc378daa952ba7f163c4a11628f55a4df523b3ef836040518082815260200191505060405180910390a35050565b600080828401905083811015612193576040517f08c379a000000000000000000000000000000000000000000000000000000000815260040180806020018281038252601b8152602001807f536166654d6174683a206164646974696f6e206f766572666c6f77000000000081525060200191505060405180910390fd5b8091505092915050565b600073ffffffffffffffffffffffffffffffffffffffff168273ffffffffffffffffffffffffffffffffffffffff161415612240576040517f08c379a000000000000000000000000000000000000000000000000000000000815260040180806020018281038252601f8152602001807f45524332303a206d696e7420746f20746865207a65726f20616464726573730081525060200191505060405180910390fd5b6122558160025461211590919063ffffffff16565b6002819055506122ac816000808573ffffffffffffffffffffffffffffffffffffffff1673ffffffffffffffffffffffffffffffffffffffff1681526020019081526020016000205461211590919063ffffffff16565b6000808473ffffffffffffffffffffffffffffffffffffffff1673ffffffffffffffffffffffffffffffffffffffff168152602001908152602001600020819055508173ffffffffffffffffffffffffffffffffffffffff16600073ffffffffffffffffffffffffffffffffffffffff167fddf252ad1be2c89b69c2b068fc378daa952ba7f163c4a11628f55a4df523b3ef836040518082815260200191505060405180910390a35050565b60008073ffffffffffffffffffffffffffffffffffffffff168273ffffffffffffffffffffffffffffffffffffffff1614156123df576040517f08c379a00000000000000000000000000000000000000000000000000000000081526004018080602001828103825260228152602001806129ad6022913960400191505060405180910390fd5b8260000160008373ffffffffffffffffffffffffffffffffffffffff1673ffffffffffffffffffffffffffffffffffffffff16815260200190815260200160002060009054906101000a900460ff16905092915050565b61244a81600661276d90919063ffffffff16565b8073ffffffffffffffffffffffffffffffffffffffff167fcd265ebaf09df2871cc7bd4133404a235ba12eff2041bb89d9c714a2621c7c7e60405160405180910390a250565b600082821115612508576040517f08c379a000000000000000000000000000000000000000000000000000000000815260040180806020018281038252601e8152602001807f536166654d6174683a207375627472616374696f6e206f766572666c6f77000081525060200191505060405180910390fd5b600082840390508091505092915050565b61252d81600661282a90919063ffffffff16565b8073ffffffffffffffffffffffffffffffffffffffff167f6719d08c1888103bea251a4ed56406bd0c3e69723c8a1686e017e7bbe159b6f860405160405180910390a250565b61258781600861282a90919063ffffffff16565b8073ffffffffffffffffffffffffffffffffffffffff167f6ae172837ea30b801fbfcdd4108aa1d5bf8ff775444fd70256b44e6bf3dfc3f660405160405180910390a250565b6125e181600861276d90919063ffffffff16565b8073ffffffffffffffffffffffffffffffffffffffff167fe94479a9f7e1952cc78f2d6baab678adc1b772d936c6583def489e524cb6669260405160405180910390a250565b600073ffffffffffffffffffffffffffffffffffffffff168173ffffffffffffffffffffffffffffffffffffffff1614156126ad576040517f08c379a00000000000000000000000000000000000000000000000000000000081526004018080602001828103825260268152602001806129366026913960400191505060405180910390fd5b8073ffffffffffffffffffffffffffffffffffffffff16600560019054906101000a900473ffffffffffffffffffffffffffffffffffffffff1673ffffffffffffffffffffffffffffffffffffffff167f8be0079c531659141344cd1fd0a4f28419497f9722a3daafe3b4186f6b6457e060405160405180910390a380600560016101000a81548173ffffffffffffffffffffffffffffffffffffffff021916908373ffffffffffffffffffffffffffffffffffffffff16021790555050565b6127778282612358565b6127cc576040517f08c379a000000000000000000000000000000000000000000000000000000000815260040180806020018281038252602181526020018061298c6021913960400191505060405180910390fd5b60008260000160008373ffffffffffffffffffffffffffffffffffffffff1673ffffffffffffffffffffffffffffffffffffffff16815260200190815260200160002060006101000a81548160ff0219169083151502179055505050565b6128348282612358565b156128a7576040517f08c379a000000000000000000000000000000000000000000000000000000000815260040180806020018281038252601f8152602001807f526f6c65733a206163636f756e7420616c72656164792068617320726f6c650081525060200191505060405180910390fd5b60018260000160008373ffffffffffffffffffffffffffffffffffffffff1673ffffffffffffffffffffffffffffffffffffffff16815260200190815260200160002060006101000a81548160ff021916908315150217905550505056fe506175736572526f6c653a2063616c6c657220646f6573206e6f742068617665207468652050617573657220726f6c654f776e61626c653a206e6577206f776e657220697320746865207a65726f20616464726573734d696e746572526f6c653a2063616c6c657220646f6573206e6f74206861766520746865204d696e74657220726f6c65526f6c65733a206163636f756e7420646f6573206e6f74206861766520726f6c65526f6c65733a206163636f756e7420697320746865207a65726f206164647265737345524332303a206275726e2066726f6d20746865207a65726f2061646472657373a165627a7a7230582071b8e79fbe08bb2ba0aa0674783eb01d6976ac32f5e9e308737f62659da4c6b40029526f6c65733a206163636f756e7420697320746865207a65726f2061646472657373",
  "source": "pragma solidity ^0.5.0;\n\nimport \"openzeppelin-solidity/contracts/token/ERC20/ERC20.sol\";\nimport \"openzeppelin-solidity/contracts/token/ERC20/ERC20Detailed.sol\";\nimport \"./Base.sol\";\n\ncontract Coin is ERC20, ERC20Detailed, Base {\n\n    mapping (address => uint256) private _escrow;\n\n    event EscrowCoin(\n        address indexed from,\n        uint256 value\n    );\n    event UnescrowCoin(\n        address indexed from,\n        address indexed to,\n        uint256 value\n    );\n\n    constructor()\n        public\n        ERC20Detailed(\"Potluck Coin\", \"POTC\", 2)\n    {\n    }\n\n    function approve(address, uint256)\n        public\n        returns (bool)\n    {\n        revert(\"Allowances not allowed!\");\n    }\n\n    function increaseAllowance(address, uint256)\n        public\n        returns (bool)\n    {\n        revert(\"Allowances not allowed!\");\n    }\n\n    function decreaseAllowance(address, uint256)\n        public\n        returns (bool)\n    {\n        revert(\"Allowances not allowed!\");\n    }\n\n    function transfer(address, uint256)\n        public\n        returns (bool)\n    {\n        revert(\"Transfers not allowed!\");\n    }\n\n    function transferFrom(address, address, uint256)\n        public\n        returns (bool)\n    {\n        revert(\"Transfers not allowed!\");\n    }\n\n    function mint(address account, uint256 amount)\n        public\n        onlyMinter\n        nonReentrant\n        addressIsNotContract(account)\n        returns (bool)\n    {\n        _mint(account, amount);\n        return true;\n    }\n\n    function burn(address account, uint256 amount)\n        public\n        onlyMinter\n        nonReentrant\n        addressIsNotContract(account)\n        returns (bool)\n    {\n        _burn(account, amount);\n        return true;\n    }\n\n    function escrow(address account, uint256 amount)\n        public\n        onlyMinter\n        nonReentrant\n        addressIsNotContract(account)\n        returns (bool)\n    {\n        _burn(account, amount);\n        _escrow[account] = _escrow[account].add(amount);\n        emit EscrowCoin(account, amount);\n        return true;\n    }\n\n    function unescrow(address account, address recipient, uint256 amount)\n        public\n        onlyMinter\n        nonReentrant\n        addressIsNotContract(account)\n        addressIsNotContract(recipient)\n        returns (bool)\n    {\n        _escrow[account] = _escrow[account].sub(amount);\n        _mint(recipient, amount);\n        emit UnescrowCoin(account, recipient, amount);\n        return true;\n    }\n\n    function escrowOf(address account)\n        public\n        view\n        addressIsNotContract(account)\n        returns (uint256)\n    {\n        return _escrow[account];\n    }\n}\n",
  "sourcePath": "/Users/bentd/Work/Ventures/potluck/potluck-ethereum/contracts/Coin.sol",
  "compiler": {
    "name": "solc",
    "version": "0.5.8+commit.23d335f2.Emscripten.clang"
  },
  "schemaVersion": "3.0.12",
  "updatedAt": "2019-08-22T21:24:29.772Z",
  "devdoc": {
    "methods": {
      "allowance(address,address)": {
        "details": "See `IERC20.allowance`."
      },
      "balanceOf(address)": {
        "details": "See `IERC20.balanceOf`."
      },
      "decimals()": {
        "details": "Returns the number of decimals used to get its user representation. For example, if `decimals` equals `2`, a balance of `505` tokens should be displayed to a user as `5,05` (`505 / 10 ** 2`).     * Tokens usually opt for a value of 18, imitating the relationship between Ether and Wei.     * > Note that this information is only used for _display_ purposes: it in no way affects any of the arithmetic of the contract, including `IERC20.balanceOf` and `IERC20.transfer`."
      },
      "isOwner()": {
        "details": "Returns true if the caller is the current owner."
      },
      "name()": {
        "details": "Returns the name of the token."
      },
      "owner()": {
        "details": "Returns the address of the current owner."
      },
      "pause()": {
        "details": "Called by a pauser to pause, triggers stopped state."
      },
      "paused()": {
        "details": "Returns true if the contract is paused, and false otherwise."
      },
      "renounceOwnership()": {
        "details": "Leaves the contract without owner. It will not be possible to call `onlyOwner` functions anymore. Can only be called by the current owner.     * > Note: Renouncing ownership will leave the contract without an owner, thereby removing any functionality that is only available to the owner."
      },
      "symbol()": {
        "details": "Returns the symbol of the token, usually a shorter version of the name."
      },
      "totalSupply()": {
        "details": "See `IERC20.totalSupply`."
      },
      "transferOwnership(address)": {
        "details": "Transfers ownership of the contract to a new account (`newOwner`). Can only be called by the current owner."
      },
      "unpause()": {
        "details": "Called by a pauser to unpause, returns to normal state."
      }
    }
  },
  "userdoc": {
    "methods": {}
  }
}