{
  "contractName": "Controller",
  "abi": [
    {
      "constant": true,
      "inputs": [
        {
          "name": "",
          "type": "string"
        },
        {
          "name": "",
          "type": "uint256"
        }
      ],
      "name": "rules",
      "outputs": [
        {
          "name": "active",
          "type": "bool"
        },
        {
          "name": "discount",
          "type": "uint256"
        },
        {
          "name": "joinTime",
          "type": "uint256"
        },
        {
          "name": "minMembers",
          "type": "uint256"
        },
        {
          "name": "maxMembers",
          "type": "uint256"
        },
        {
          "name": "price",
          "type": "uint256"
        }
      ],
      "payable": false,
      "stateMutability": "view",
      "type": "function"
    },
    {
      "constant": false,
      "inputs": [],
      "name": "unpause",
      "outputs": [],
      "payable": false,
      "stateMutability": "nonpayable",
      "type": "function"
    },
    {
      "constant": true,
      "inputs": [
        {
          "name": "account",
          "type": "address"
        }
      ],
      "name": "isPauser",
      "outputs": [
        {
          "name": "",
          "type": "bool"
        }
      ],
      "payable": false,
      "stateMutability": "view",
      "type": "function"
    },
    {
      "constant": true,
      "inputs": [
        {
          "name": "",
          "type": "string"
        },
        {
          "name": "",
          "type": "uint256"
        }
      ],
      "name": "groups",
      "outputs": [
        {
          "name": "evaluated",
          "type": "bool"
        },
        {
          "name": "numMembers",
          "type": "uint256"
        },
        {
          "name": "memberGoal",
          "type": "uint256"
        },
        {
          "name": "startTime",
          "type": "uint256"
        }
      ],
      "payable": false,
      "stateMutability": "view",
      "type": "function"
    },
    {
      "constant": true,
      "inputs": [],
      "name": "paused",
      "outputs": [
        {
          "name": "",
          "type": "bool"
        }
      ],
      "payable": false,
      "stateMutability": "view",
      "type": "function"
    },
    {
      "constant": false,
      "inputs": [],
      "name": "renouncePauser",
      "outputs": [],
      "payable": false,
      "stateMutability": "nonpayable",
      "type": "function"
    },
    {
      "constant": false,
      "inputs": [],
      "name": "renounceOwnership",
      "outputs": [],
      "payable": false,
      "stateMutability": "nonpayable",
      "type": "function"
    },
    {
      "constant": false,
      "inputs": [
        {
          "name": "account",
          "type": "address"
        }
      ],
      "name": "addPauser",
      "outputs": [],
      "payable": false,
      "stateMutability": "nonpayable",
      "type": "function"
    },
    {
      "constant": false,
      "inputs": [],
      "name": "destroy",
      "outputs": [],
      "payable": false,
      "stateMutability": "nonpayable",
      "type": "function"
    },
    {
      "constant": false,
      "inputs": [],
      "name": "pause",
      "outputs": [],
      "payable": false,
      "stateMutability": "nonpayable",
      "type": "function"
    },
    {
      "constant": true,
      "inputs": [],
      "name": "owner",
      "outputs": [
        {
          "name": "",
          "type": "address"
        }
      ],
      "payable": false,
      "stateMutability": "view",
      "type": "function"
    },
    {
      "constant": true,
      "inputs": [],
      "name": "isOwner",
      "outputs": [
        {
          "name": "",
          "type": "bool"
        }
      ],
      "payable": false,
      "stateMutability": "view",
      "type": "function"
    },
    {
      "constant": false,
      "inputs": [
        {
          "name": "account",
          "type": "address"
        }
      ],
      "name": "addMinter",
      "outputs": [],
      "payable": false,
      "stateMutability": "nonpayable",
      "type": "function"
    },
    {
      "constant": false,
      "inputs": [],
      "name": "renounceMinter",
      "outputs": [],
      "payable": false,
      "stateMutability": "nonpayable",
      "type": "function"
    },
    {
      "constant": true,
      "inputs": [
        {
          "name": "account",
          "type": "address"
        }
      ],
      "name": "isMinter",
      "outputs": [
        {
          "name": "",
          "type": "bool"
        }
      ],
      "payable": false,
      "stateMutability": "view",
      "type": "function"
    },
    {
      "constant": true,
      "inputs": [
        {
          "name": "",
          "type": "address"
        }
      ],
      "name": "businesses",
      "outputs": [
        {
          "name": "",
          "type": "string"
        }
      ],
      "payable": false,
      "stateMutability": "view",
      "type": "function"
    },
    {
      "constant": false,
      "inputs": [
        {
          "name": "newOwner",
          "type": "address"
        }
      ],
      "name": "transferOwnership",
      "outputs": [],
      "payable": false,
      "stateMutability": "nonpayable",
      "type": "function"
    },
    {
      "inputs": [
        {
          "name": "coin",
          "type": "address"
        },
        {
          "name": "discount",
          "type": "address"
        }
      ],
      "payable": false,
      "stateMutability": "nonpayable",
      "type": "constructor"
    },
    {
      "anonymous": false,
      "inputs": [
        {
          "indexed": true,
          "name": "account",
          "type": "address"
        },
        {
          "indexed": false,
          "name": "business",
          "type": "string"
        }
      ],
      "name": "OwnerSet",
      "type": "event"
    },
    {
      "anonymous": false,
      "inputs": [
        {
          "indexed": false,
          "name": "business",
          "type": "string"
        },
        {
          "indexed": true,
          "name": "product",
          "type": "uint256"
        },
        {
          "indexed": false,
          "name": "active",
          "type": "bool"
        },
        {
          "indexed": false,
          "name": "discount",
          "type": "uint256"
        },
        {
          "indexed": false,
          "name": "joinTime",
          "type": "uint256"
        },
        {
          "indexed": false,
          "name": "minMembers",
          "type": "uint256"
        },
        {
          "indexed": false,
          "name": "maxMembers",
          "type": "uint256"
        },
        {
          "indexed": false,
          "name": "price",
          "type": "uint256"
        }
      ],
      "name": "RuleSet",
      "type": "event"
    },
    {
      "anonymous": false,
      "inputs": [
        {
          "indexed": false,
          "name": "business",
          "type": "string"
        },
        {
          "indexed": true,
          "name": "product",
          "type": "uint256"
        },
        {
          "indexed": false,
          "name": "numMembers",
          "type": "uint256"
        },
        {
          "indexed": false,
          "name": "memberGoal",
          "type": "uint256"
        },
        {
          "indexed": false,
          "name": "startTime",
          "type": "uint256"
        },
        {
          "indexed": false,
          "name": "joinTime",
          "type": "uint256"
        }
      ],
      "name": "GroupStarted",
      "type": "event"
    },
    {
      "anonymous": false,
      "inputs": [
        {
          "indexed": false,
          "name": "business",
          "type": "string"
        },
        {
          "indexed": true,
          "name": "product",
          "type": "uint256"
        },
        {
          "indexed": false,
          "name": "numMembers",
          "type": "uint256"
        },
        {
          "indexed": false,
          "name": "memberGoal",
          "type": "uint256"
        }
      ],
      "name": "GroupJoined",
      "type": "event"
    },
    {
      "anonymous": false,
      "inputs": [
        {
          "indexed": false,
          "name": "business",
          "type": "string"
        },
        {
          "indexed": true,
          "name": "product",
          "type": "uint256"
        }
      ],
      "name": "GroupEvaluated",
      "type": "event"
    },
    {
      "anonymous": false,
      "inputs": [
        {
          "indexed": false,
          "name": "business",
          "type": "string"
        },
        {
          "indexed": true,
          "name": "product",
          "type": "uint256"
        },
        {
          "indexed": false,
          "name": "numMembers",
          "type": "uint256"
        },
        {
          "indexed": false,
          "name": "memberGoal",
          "type": "uint256"
        },
        {
          "indexed": false,
          "name": "success",
          "type": "bool"
        }
      ],
      "name": "GroupEnded",
      "type": "event"
    },
    {
      "anonymous": false,
      "inputs": [
        {
          "indexed": false,
          "name": "business",
          "type": "string"
        },
        {
          "indexed": true,
          "name": "product",
          "type": "uint256"
        }
      ],
      "name": "GroupReset",
      "type": "event"
    },
    {
      "anonymous": false,
      "inputs": [
        {
          "indexed": true,
          "name": "from",
          "type": "address"
        },
        {
          "indexed": false,
          "name": "value",
          "type": "uint256"
        }
      ],
      "name": "EscrowCoin",
      "type": "event"
    },
    {
      "anonymous": false,
      "inputs": [
        {
          "indexed": true,
          "name": "from",
          "type": "address"
        },
        {
          "indexed": true,
          "name": "to",
          "type": "address"
        },
        {
          "indexed": false,
          "name": "value",
          "type": "uint256"
        }
      ],
      "name": "UnescrowCoin",
      "type": "event"
    },
    {
      "anonymous": false,
      "inputs": [
        {
          "indexed": true,
          "name": "to",
          "type": "address"
        },
        {
          "indexed": true,
          "name": "tokenId",
          "type": "uint256"
        }
      ],
      "name": "MintDiscount",
      "type": "event"
    },
    {
      "anonymous": false,
      "inputs": [
        {
          "indexed": true,
          "name": "account",
          "type": "address"
        }
      ],
      "name": "MinterAdded",
      "type": "event"
    },
    {
      "anonymous": false,
      "inputs": [
        {
          "indexed": true,
          "name": "account",
          "type": "address"
        }
      ],
      "name": "MinterRemoved",
      "type": "event"
    },
    {
      "anonymous": false,
      "inputs": [
        {
          "indexed": false,
          "name": "account",
          "type": "address"
        }
      ],
      "name": "Paused",
      "type": "event"
    },
    {
      "anonymous": false,
      "inputs": [
        {
          "indexed": false,
          "name": "account",
          "type": "address"
        }
      ],
      "name": "Unpaused",
      "type": "event"
    },
    {
      "anonymous": false,
      "inputs": [
        {
          "indexed": true,
          "name": "account",
          "type": "address"
        }
      ],
      "name": "PauserAdded",
      "type": "event"
    },
    {
      "anonymous": false,
      "inputs": [
        {
          "indexed": true,
          "name": "account",
          "type": "address"
        }
      ],
      "name": "PauserRemoved",
      "type": "event"
    },
    {
      "anonymous": false,
      "inputs": [
        {
          "indexed": true,
          "name": "previousOwner",
          "type": "address"
        },
        {
          "indexed": true,
          "name": "newOwner",
          "type": "address"
        }
      ],
      "name": "OwnershipTransferred",
      "type": "event"
    },
    {
      "constant": true,
      "inputs": [
        {
          "name": "business",
          "type": "string"
        },
        {
          "name": "product",
          "type": "uint256"
        }
      ],
      "name": "getGroupSize",
      "outputs": [
        {
          "name": "",
          "type": "uint256"
        }
      ],
      "payable": false,
      "stateMutability": "view",
      "type": "function"
    },
    {
      "constant": false,
      "inputs": [
        {
          "name": "account",
          "type": "address"
        },
        {
          "name": "business",
          "type": "string"
        }
      ],
      "name": "setOwner",
      "outputs": [
        {
          "name": "",
          "type": "bool"
        }
      ],
      "payable": false,
      "stateMutability": "nonpayable",
      "type": "function"
    },
    {
      "constant": false,
      "inputs": [
        {
          "name": "account",
          "type": "address"
        }
      ],
      "name": "deleteOwner",
      "outputs": [
        {
          "name": "",
          "type": "bool"
        }
      ],
      "payable": false,
      "stateMutability": "nonpayable",
      "type": "function"
    },
    {
      "constant": false,
      "inputs": [
        {
          "name": "account",
          "type": "address"
        },
        {
          "name": "business",
          "type": "string"
        },
        {
          "name": "product",
          "type": "uint256"
        },
        {
          "name": "active",
          "type": "bool"
        },
        {
          "name": "discount",
          "type": "uint256"
        },
        {
          "name": "joinTime",
          "type": "uint256"
        },
        {
          "name": "minMembers",
          "type": "uint256"
        },
        {
          "name": "maxMembers",
          "type": "uint256"
        },
        {
          "name": "price",
          "type": "uint256"
        }
      ],
      "name": "setRule",
      "outputs": [
        {
          "name": "",
          "type": "bool"
        }
      ],
      "payable": false,
      "stateMutability": "nonpayable",
      "type": "function"
    },
    {
      "constant": false,
      "inputs": [
        {
          "name": "account",
          "type": "address"
        },
        {
          "name": "business",
          "type": "string"
        },
        {
          "name": "product",
          "type": "uint256"
        }
      ],
      "name": "deleteRule",
      "outputs": [
        {
          "name": "",
          "type": "bool"
        }
      ],
      "payable": false,
      "stateMutability": "nonpayable",
      "type": "function"
    },
    {
      "constant": false,
      "inputs": [
        {
          "name": "account",
          "type": "address"
        },
        {
          "name": "business",
          "type": "string"
        },
        {
          "name": "product",
          "type": "uint256"
        },
        {
          "name": "memberGoal",
          "type": "uint256"
        }
      ],
      "name": "startGroup",
      "outputs": [
        {
          "name": "",
          "type": "bool"
        }
      ],
      "payable": false,
      "stateMutability": "nonpayable",
      "type": "function"
    },
    {
      "constant": false,
      "inputs": [
        {
          "name": "account",
          "type": "address"
        },
        {
          "name": "business",
          "type": "string"
        },
        {
          "name": "product",
          "type": "uint256"
        }
      ],
      "name": "joinGroup",
      "outputs": [
        {
          "name": "",
          "type": "bool"
        }
      ],
      "payable": false,
      "stateMutability": "nonpayable",
      "type": "function"
    },
    {
      "constant": false,
      "inputs": [
        {
          "name": "business",
          "type": "string"
        },
        {
          "name": "product",
          "type": "uint256"
        }
      ],
      "name": "evaluateGroup",
      "outputs": [
        {
          "name": "",
          "type": "bool"
        }
      ],
      "payable": false,
      "stateMutability": "nonpayable",
      "type": "function"
    },
    {
      "constant": false,
      "inputs": [
        {
          "name": "business",
          "type": "string"
        },
        {
          "name": "product",
          "type": "uint256"
        }
      ],
      "name": "endGroup",
      "outputs": [
        {
          "name": "",
          "type": "bool"
        }
      ],
      "payable": false,
      "stateMutability": "nonpayable",
      "type": "function"
    }
  ],
  "bytecode": "0x60806040523480156200001157600080fd5b5060405160408062005a7f833981018060405260408110156200003357600080fd5b810190808051906020019092919080519060200190929190505050336000806101000a81548173ffffffffffffffffffffffffffffffffffffffff021916908373ffffffffffffffffffffffffffffffffffffffff1602179055506000809054906101000a900473ffffffffffffffffffffffffffffffffffffffff1673ffffffffffffffffffffffffffffffffffffffff16600073ffffffffffffffffffffffffffffffffffffffff167f8be0079c531659141344cd1fd0a4f28419497f9722a3daafe3b4186f6b6457e060405160405180910390a36200011b336200027b60201b60201c565b6000600260006101000a81548160ff0219169083151502179055506200014733620002dc60201b60201c565b6001600481905550336200017c8173ffffffffffffffffffffffffffffffffffffffff166200033d60201b62003ea61760201c565b15620001f0576040517f08c379a00000000000000000000000000000000000000000000000000000000081526004018080602001828103825260148152602001807f4163636f756e7420697320636f6e74726163742100000000000000000000000081525060200191505060405180910390fd5b82600560006101000a81548173ffffffffffffffffffffffffffffffffffffffff021916908373ffffffffffffffffffffffffffffffffffffffff16021790555081600660006101000a81548173ffffffffffffffffffffffffffffffffffffffff021916908373ffffffffffffffffffffffffffffffffffffffff16021790555050505062000514565b620002968160016200035060201b620052761790919060201c565b8073ffffffffffffffffffffffffffffffffffffffff167f6719d08c1888103bea251a4ed56406bd0c3e69723c8a1686e017e7bbe159b6f860405160405180910390a250565b620002f78160036200035060201b620052761790919060201c565b8073ffffffffffffffffffffffffffffffffffffffff167f6ae172837ea30b801fbfcdd4108aa1d5bf8ff775444fd70256b44e6bf3dfc3f660405160405180910390a250565b600080823b905060008111915050919050565b6200036282826200043460201b60201c565b15620003d6576040517f08c379a000000000000000000000000000000000000000000000000000000000815260040180806020018281038252601f8152602001807f526f6c65733a206163636f756e7420616c72656164792068617320726f6c650081525060200191505060405180910390fd5b60018260000160008373ffffffffffffffffffffffffffffffffffffffff1673ffffffffffffffffffffffffffffffffffffffff16815260200190815260200160002060006101000a81548160ff0219169083151502179055505050565b60008073ffffffffffffffffffffffffffffffffffffffff168273ffffffffffffffffffffffffffffffffffffffff161415620004bd576040517f08c379a000000000000000000000000000000000000000000000000000000000815260040180806020018281038252602281526020018062005a5d6022913960400191505060405180910390fd5b8260000160008373ffffffffffffffffffffffffffffffffffffffff1673ffffffffffffffffffffffffffffffffffffffff16815260200190815260200160002060009054906101000a900460ff16905092915050565b61553980620005246000396000f3fe608060405234801561001057600080fd5b506004361061018e5760003560e01c806383197ef0116100de5780639865027511610097578063b31e26e411610071578063b31e26e414610c5f578063cd5c4c7014610d1c578063d62b255b14610d78578063f2fde38b14610e6b5761018e565b80639865027514610afc578063a99fef6f14610b06578063aa271e1a14610c035761018e565b806383197ef01461093b5780638456cb59146109455780638da5cb5b1461094f5780638f32d59b1461099957806395c29c96146109bb578063983b2d5614610ab85761018e565b80634ea1f1881161014b5780635c975abb116101255780635c975abb146108c15780636ef8d66d146108e3578063715018a6146108ed57806382dc1ec4146108f75761018e565b80634ea1f1881461061957806352bf4a071461070b5780635b2d37c7146107e45761018e565b8063179a65c01461019357806325e42d86146102705780633c615989146103ac5780633f4ba83a146104ac57806344164f2b146104b657806346fbf68e146105bd575b600080fd5b610256600480360360408110156101a957600080fd5b81019080803590602001906401000000008111156101c657600080fd5b8201836020820111156101d857600080fd5b803590602001918460018302840111640100000000831117156101fa57600080fd5b91908080601f016020809104026020016040519081016040528093929190818152602001838380828437600081840152601f19601f82011690508083019250505050505050919291929080359060200190929190505050610eaf565b604051808215151515815260200191505060405180910390f35b610392600480360361012081101561028757600080fd5b81019080803573ffffffffffffffffffffffffffffffffffffffff169060200190929190803590602001906401000000008111156102c457600080fd5b8201836020820111156102d657600080fd5b803590602001918460018302840111640100000000831117156102f857600080fd5b91908080601f016020809104026020016040519081016040528093929190818152602001838380828437600081840152601f19601f820116905080830192505050505050509192919290803590602001909291908035151590602001909291908035906020019092919080359060200190929190803590602001909291908035906020019092919080359060200190929190505050611073565b604051808215151515815260200191505060405180910390f35b61046f600480360360408110156103c257600080fd5b81019080803590602001906401000000008111156103df57600080fd5b8201836020820111156103f157600080fd5b8035906020019184600183028401116401000000008311171561041357600080fd5b91908080601f016020809104026020016040519081016040528093929190818152602001838380828437600081840152601f19601f8201169050808301925050505050505091929192908035906020019092919050505061154d565b6040518087151515158152602001868152602001858152602001848152602001838152602001828152602001965050505050505060405180910390f35b6104b46115b9565b005b6105a3600480360360808110156104cc57600080fd5b81019080803573ffffffffffffffffffffffffffffffffffffffff1690602001909291908035906020019064010000000081111561050957600080fd5b82018360208201111561051b57600080fd5b8035906020019184600183028401116401000000008311171561053d57600080fd5b91908080601f016020809104026020016040519081016040528093929190818152602001838380828437600081840152601f19601f8201169050808301925050505050505091929192908035906020019092919080359060200190929190505050611719565b604051808215151515815260200191505060405180910390f35b6105ff600480360360208110156105d357600080fd5b81019080803573ffffffffffffffffffffffffffffffffffffffff169060200190929190505050611cde565b604051808215151515815260200191505060405180910390f35b6106dc6004803603604081101561062f57600080fd5b810190808035906020019064010000000081111561064c57600080fd5b82018360208201111561065e57600080fd5b8035906020019184600183028401116401000000008311171561068057600080fd5b91908080601f016020809104026020016040519081016040528093929190818152602001838380828437600081840152601f19601f82011690508083019250505050505050919291929080359060200190929190505050611cfb565b604051808515151515815260200184815260200183815260200182815260200194505050505060405180910390f35b6107ce6004803603604081101561072157600080fd5b810190808035906020019064010000000081111561073e57600080fd5b82018360208201111561075057600080fd5b8035906020019184600183028401116401000000008311171561077257600080fd5b91908080601f016020809104026020016040519081016040528093929190818152602001838380828437600081840152601f19601f82011690508083019250505050505050919291929080359060200190929190505050611d5b565b6040518082815260200191505060405180910390f35b6108a7600480360360408110156107fa57600080fd5b810190808035906020019064010000000081111561081757600080fd5b82018360208201111561082957600080fd5b8035906020019184600183028401116401000000008311171561084b57600080fd5b91908080601f016020809104026020016040519081016040528093929190818152602001838380828437600081840152601f19601f82011690508083019250505050505050919291929080359060200190929190505050611e60565b604051808215151515815260200191505060405180910390f35b6108c9612025565b604051808215151515815260200191505060405180910390f35b6108eb61203c565b005b6108f5612047565b005b6109396004803603602081101561090d57600080fd5b81019080803573ffffffffffffffffffffffffffffffffffffffff169060200190929190505050612180565b005b6109436121ea565b005b61094d612289565b005b6109576123ea565b604051808273ffffffffffffffffffffffffffffffffffffffff1673ffffffffffffffffffffffffffffffffffffffff16815260200191505060405180910390f35b6109a1612413565b604051808215151515815260200191505060405180910390f35b610a9e600480360360608110156109d157600080fd5b81019080803573ffffffffffffffffffffffffffffffffffffffff16906020019092919080359060200190640100000000811115610a0e57600080fd5b820183602082011115610a2057600080fd5b80359060200191846001830284011164010000000083111715610a4257600080fd5b91908080601f016020809104026020016040519081016040528093929190818152602001838380828437600081840152601f19601f8201169050808301925050505050505091929192908035906020019092919050505061246a565b604051808215151515815260200191505060405180910390f35b610afa60048036036020811015610ace57600080fd5b81019080803573ffffffffffffffffffffffffffffffffffffffff169060200190929190505050612942565b005b610b046129ac565b005b610be960048036036060811015610b1c57600080fd5b81019080803573ffffffffffffffffffffffffffffffffffffffff16906020019092919080359060200190640100000000811115610b5957600080fd5b820183602082011115610b6b57600080fd5b80359060200191846001830284011164010000000083111715610b8d57600080fd5b91908080601f016020809104026020016040519081016040528093929190818152602001838380828437600081840152601f19601f820116905080830192505050505050509192919290803590602001909291905050506129b7565b604051808215151515815260200191505060405180910390f35b610c4560048036036020811015610c1957600080fd5b81019080803573ffffffffffffffffffffffffffffffffffffffff169060200190929190505050612e94565b604051808215151515815260200191505060405180910390f35b610ca160048036036020811015610c7557600080fd5b81019080803573ffffffffffffffffffffffffffffffffffffffff169060200190929190505050612eb1565b6040518080602001828103825283818151815260200191508051906020019080838360005b83811015610ce1578082015181840152602081019050610cc6565b50505050905090810190601f168015610d0e5780820380516001836020036101000a031916815260200191505b509250505060405180910390f35b610d5e60048036036020811015610d3257600080fd5b81019080803573ffffffffffffffffffffffffffffffffffffffff169060200190929190505050612f61565b604051808215151515815260200191505060405180910390f35b610e5160048036036040811015610d8e57600080fd5b81019080803573ffffffffffffffffffffffffffffffffffffffff16906020019092919080359060200190640100000000811115610dcb57600080fd5b820183602082011115610ddd57600080fd5b80359060200191846001830284011164010000000083111715610dff57600080fd5b91908080601f016020809104026020016040519081016040528093929190818152602001838380828437600081840152601f19601f820116905080830192505050505050509192919290505050613299565b604051808215151515815260200191505060405180910390f35b610ead60048036036020811015610e8157600080fd5b81019080803573ffffffffffffffffffffffffffffffffffffffff1690602001909291905050506137f9565b005b6000610eb9612413565b610f2b576040517f08c379a00000000000000000000000000000000000000000000000000000000081526004018080602001828103825260208152602001807f4f776e61626c653a2063616c6c6572206973206e6f7420746865206f776e657281525060200191505060405180910390fd5b600160046000828254019250508190555060006004549050610f4d848461387f565b15610f6357610f5e84846001613915565b610ff1565b610f6d8484613d91565b610f8257610f7d84846000613915565b610ff0565b6040517f08c379a00000000000000000000000000000000000000000000000000000000081526004018080602001828103825260148152602001807f47726f7570206973207374696c6c206c6976652100000000000000000000000081525060200191505060405180910390fd5b5b60019150600454811461106c576040517f08c379a000000000000000000000000000000000000000000000000000000000815260040180806020018281038252601f8152602001807f5265656e7472616e637947756172643a207265656e7472616e742063616c6c0081525060200191505060405180910390fd5b5092915050565b600061107d612413565b6110ef576040517f08c379a00000000000000000000000000000000000000000000000000000000081526004018080602001828103825260208152602001807f4f776e61626c653a2063616c6c6572206973206e6f7420746865206f776e657281525060200191505060405180910390fd5b6001600460008282540192505081905550600060045490508a8a8173ffffffffffffffffffffffffffffffffffffffff166007826040518082805190602001908083835b602083106111565780518252602082019150602081019050602083039250611133565b6001836020036101000a038019825116818451168082178552505050505050905001915050908152602001604051809103902060009054906101000a900473ffffffffffffffffffffffffffffffffffffffff1673ffffffffffffffffffffffffffffffffffffffff1614611233576040517f08c379a00000000000000000000000000000000000000000000000000000000081526004018080602001828103825260198152602001807f4163636f756e74206973206e6f7420746865206f776e6572210000000000000081525060200191505060405180910390fd5b6000600a8d6040518082805190602001908083835b6020831061126b5780518252602082019150602081019050602083039250611248565b6001836020036101000a038019825116818451168082178552505050505050905001915050908152602001604051809103902060008d81526020019081526020016000206001018054905014611329576040517f08c379a00000000000000000000000000000000000000000000000000000000081526004018080602001828103825260138152602001807f47726f7570206973206e6f7420656d707479210000000000000000000000000081525060200191505060405180910390fd5b600060098d6040518082805190602001908083835b60208310611361578051825260208201915060208101905060208303925061133e565b6001836020036101000a038019825116818451168082178552505050505050905001915050908152602001604051809103902060008d815260200190815260200160002090508a8160000160006101000a81548160ff0219169083151502179055508981600101819055508881600201819055508781600301819055508681600401819055508581600501819055508b7f9fddb5c4759ed6d8767d12ddab3b42f54681067c72d3d2282ee7769cd3d96dd38e8d8d8d8d8d8d604051808060200188151515158152602001878152602001868152602001858152602001848152602001838152602001828103825289818151815260200191508051906020019080838360005b83811015611481578082015181840152602081019050611466565b50505050905090810190601f1680156114ae5780820380516001836020036101000a031916815260200191505b509850505050505050505060405180910390a260019450505050600454811461153f576040517f08c379a000000000000000000000000000000000000000000000000000000000815260040180806020018281038252601f8152602001807f5265656e7472616e637947756172643a207265656e7472616e742063616c6c0081525060200191505060405180910390fd5b509998505050505050505050565b600982805160208101820180518482526020830160208501208183528095505050505050602052806000526040600020600091509150508060000160009054906101000a900460ff16908060010154908060020154908060030154908060040154908060050154905086565b6115c233611cde565b611617576040517f08c379a00000000000000000000000000000000000000000000000000000000081526004018080602001828103825260308152602001806154456030913960400191505060405180910390fd5b600260009054906101000a900460ff16611699576040517f08c379a00000000000000000000000000000000000000000000000000000000081526004018080602001828103825260148152602001807f5061757361626c653a206e6f742070617573656400000000000000000000000081525060200191505060405180910390fd5b6000600260006101000a81548160ff0219169083151502179055507f5db9ee0a495bf2e6ff9c91a7834c1ba4fdd244a5e8aa4e537bd38aeae4b073aa33604051808273ffffffffffffffffffffffffffffffffffffffff1673ffffffffffffffffffffffffffffffffffffffff16815260200191505060405180910390a1565b600060016004600082825401925050819055506000600454905061173b612413565b6117ad576040517f08c379a00000000000000000000000000000000000000000000000000000000081526004018080602001828103825260208152602001807f4f776e61626c653a2063616c6c6572206973206e6f7420746865206f776e657281525060200191505060405180910390fd5b856117cd8173ffffffffffffffffffffffffffffffffffffffff16613ea6565b15611840576040517f08c379a00000000000000000000000000000000000000000000000000000000081526004018080602001828103825260148152602001807f4163636f756e7420697320636f6e74726163742100000000000000000000000081525060200191505060405180910390fd5b60006009876040518082805190602001908083835b602083106118785780518252602082019150602081019050602083039250611855565b6001836020036101000a0380198251168184511680821785525050505050509050019150509081526020016040518091039020600087815260200190815260200160002090506000600a886040518082805190602001908083835b602083106118f657805182526020820191506020810190506020830392506118d3565b6001836020036101000a0380198251168184511680821785525050505050509050019150509081526020016040518091039020600088815260200190815260200160002090508160000160009054906101000a900460ff166119c0576040517f08c379a00000000000000000000000000000000000000000000000000000000081526004018080602001828103825260138152602001807f52756c65206973206e6f7420616374697665210000000000000000000000000081525060200191505060405180910390fd5b8160030154861015611a3a576040517f08c379a00000000000000000000000000000000000000000000000000000000081526004018080602001828103825260108152602001807f476f616c20697320746f6f206c6f77210000000000000000000000000000000081525060200191505060405180910390fd5b8160040154861115611ab4576040517f08c379a00000000000000000000000000000000000000000000000000000000081526004018080602001828103825260118152602001807f476f616c20697320746f6f20686967682100000000000000000000000000000081525060200191505060405180910390fd5b6000816001018054905014611b31576040517f08c379a00000000000000000000000000000000000000000000000000000000081526004018080602001828103825260138152602001807f47726f7570206973206e6f7420656d707479210000000000000000000000000081525060200191505060405180910390fd5b8873ffffffffffffffffffffffffffffffffffffffff166007896040518082805190602001908083835b60208310611b7e5780518252602082019150602081019050602083039250611b5b565b6001836020036101000a038019825116818451168082178552505050505050905001915050908152602001604051809103902060009054906101000a900473ffffffffffffffffffffffffffffffffffffffff1673ffffffffffffffffffffffffffffffffffffffff161415611c3f576040517f08c379a00000000000000000000000000000000000000000000000000000000081526004018080602001828103825260228152602001806154236022913960400191505060405180910390fd5b611c4b89898989613eb9565b611c578989898961409f565b600194505050506004548114611cd5576040517f08c379a000000000000000000000000000000000000000000000000000000000815260040180806020018281038252601f8152602001807f5265656e7472616e637947756172643a207265656e7472616e742063616c6c0081525060200191505060405180910390fd5b50949350505050565b6000611cf48260016143e490919063ffffffff16565b9050919050565b600a82805160208101820180518482526020830160208501208183528095505050505050602052806000526040600020600091509150508060000160009054906101000a900460ff16908060020154908060030154908060040154905084565b6000611d65612413565b611dd7576040517f08c379a00000000000000000000000000000000000000000000000000000000081526004018080602001828103825260208152602001807f4f776e61626c653a2063616c6c6572206973206e6f7420746865206f776e657281525060200191505060405180910390fd5b600a836040518082805190602001908083835b60208310611e0d5780518252602082019150602081019050602083039250611dea565b6001836020036101000a0380198251168184511680821785525050505050509050019150509081526020016040518091039020600083815260200190815260200160002060010180549050905092915050565b6000611e6a612413565b611edc576040517f08c379a00000000000000000000000000000000000000000000000000000000081526004018080602001828103825260208152602001807f4f776e61626c653a2063616c6c6572206973206e6f7420746865206f776e657281525060200191505060405180910390fd5b600160046000828254019250508190555060006004549050611efe84846144c2565b15611f3557611f0d848461387f565b15611f2357611f1e84846001614557565b611f30565b611f2f84846000614557565b5b611fa3565b6040517f08c379a00000000000000000000000000000000000000000000000000000000081526004018080602001828103825260148152602001807f47726f7570206973207374696c6c206c6976652100000000000000000000000081525060200191505060405180910390fd5b60019150600454811461201e576040517f08c379a000000000000000000000000000000000000000000000000000000000815260040180806020018281038252601f8152602001807f5265656e7472616e637947756172643a207265656e7472616e742063616c6c0081525060200191505060405180910390fd5b5092915050565b6000600260009054906101000a900460ff16905090565b612045336149b0565b565b61204f612413565b6120c1576040517f08c379a00000000000000000000000000000000000000000000000000000000081526004018080602001828103825260208152602001807f4f776e61626c653a2063616c6c6572206973206e6f7420746865206f776e657281525060200191505060405180910390fd5b600073ffffffffffffffffffffffffffffffffffffffff166000809054906101000a900473ffffffffffffffffffffffffffffffffffffffff1673ffffffffffffffffffffffffffffffffffffffff167f8be0079c531659141344cd1fd0a4f28419497f9722a3daafe3b4186f6b6457e060405160405180910390a360008060006101000a81548173ffffffffffffffffffffffffffffffffffffffff021916908373ffffffffffffffffffffffffffffffffffffffff160217905550565b61218933611cde565b6121de576040517f08c379a00000000000000000000000000000000000000000000000000000000081526004018080602001828103825260308152602001806154456030913960400191505060405180910390fd5b6121e781614a0a565b50565b6121f2612413565b612264576040517f08c379a00000000000000000000000000000000000000000000000000000000081526004018080602001828103825260208152602001807f4f776e61626c653a2063616c6c6572206973206e6f7420746865206f776e657281525060200191505060405180910390fd5b600061226e6123ea565b90508073ffffffffffffffffffffffffffffffffffffffff16ff5b61229233611cde565b6122e7576040517f08c379a00000000000000000000000000000000000000000000000000000000081526004018080602001828103825260308152602001806154456030913960400191505060405180910390fd5b600260009054906101000a900460ff161561236a576040517f08c379a00000000000000000000000000000000000000000000000000000000081526004018080602001828103825260108152602001807f5061757361626c653a207061757365640000000000000000000000000000000081525060200191505060405180910390fd5b6001600260006101000a81548160ff0219169083151502179055507f62e78cea01bee320cd4e420270b5ea74000d11b0c9f74754ebdbfc544b05a25833604051808273ffffffffffffffffffffffffffffffffffffffff1673ffffffffffffffffffffffffffffffffffffffff16815260200191505060405180910390a1565b60008060009054906101000a900473ffffffffffffffffffffffffffffffffffffffff16905090565b60008060009054906101000a900473ffffffffffffffffffffffffffffffffffffffff1673ffffffffffffffffffffffffffffffffffffffff163373ffffffffffffffffffffffffffffffffffffffff1614905090565b600060016004600082825401925050819055506000600454905061248c612413565b6124fe576040517f08c379a00000000000000000000000000000000000000000000000000000000081526004018080602001828103825260208152602001807f4f776e61626c653a2063616c6c6572206973206e6f7420746865206f776e657281525060200191505060405180910390fd5b8461251e8173ffffffffffffffffffffffffffffffffffffffff16613ea6565b15612591576040517f08c379a00000000000000000000000000000000000000000000000000000000081526004018080602001828103825260148152602001807f4163636f756e7420697320636f6e74726163742100000000000000000000000081525060200191505060405180910390fd5b6000600a866040518082805190602001908083835b602083106125c957805182526020820191506020810190506020830392506125a6565b6001836020036101000a038019825116818451168082178552505050505050905001915050908152602001604051809103902060008681526020019081526020016000209050600081600101805490501161268c576040517f08c379a00000000000000000000000000000000000000000000000000000000081526004018080602001828103825260138152602001807f47726f7570206973206e6f7420656d707479210000000000000000000000000081525060200191505060405180910390fd5b806003015481600101805490501061270c576040517f08c379a000000000000000000000000000000000000000000000000000000000815260040180806020018281038252600e8152602001807f47726f75702069732066756c6c2100000000000000000000000000000000000081525060200191505060405180910390fd5b6127168686613d91565b612788576040517f08c379a00000000000000000000000000000000000000000000000000000000081526004018080602001828103825260128152602001807f47726f757020686173206578706972656421000000000000000000000000000081525060200191505060405180910390fd5b8673ffffffffffffffffffffffffffffffffffffffff166007876040518082805190602001908083835b602083106127d557805182526020820191506020810190506020830392506127b2565b6001836020036101000a038019825116818451168082178552505050505050905001915050908152602001604051809103902060009054906101000a900473ffffffffffffffffffffffffffffffffffffffff1673ffffffffffffffffffffffffffffffffffffffff161415612896576040517f08c379a00000000000000000000000000000000000000000000000000000000081526004018080602001828103825260228152602001806154236022913960400191505060405180910390fd5b6128a1878787614a64565b506128b28787878460030154613eb9565b6128bd878787614bfd565b600193505050600454811461293a576040517f08c379a000000000000000000000000000000000000000000000000000000000815260040180806020018281038252601f8152602001807f5265656e7472616e637947756172643a207265656e7472616e742063616c6c0081525060200191505060405180910390fd5b509392505050565b61294b33612e94565b6129a0576040517f08c379a000000000000000000000000000000000000000000000000000000000815260040180806020018281038252603081526020018061549b6030913960400191505060405180910390fd5b6129a981614ea9565b50565b6129b533614f03565b565b60006129c1612413565b612a33576040517f08c379a00000000000000000000000000000000000000000000000000000000081526004018080602001828103825260208152602001807f4f776e61626c653a2063616c6c6572206973206e6f7420746865206f776e657281525060200191505060405180910390fd5b60016004600082825401925050819055506000600454905084848173ffffffffffffffffffffffffffffffffffffffff166007826040518082805190602001908083835b60208310612a9a5780518252602082019150602081019050602083039250612a77565b6001836020036101000a038019825116818451168082178552505050505050905001915050908152602001604051809103902060009054906101000a900473ffffffffffffffffffffffffffffffffffffffff1673ffffffffffffffffffffffffffffffffffffffff1614612b77576040517f08c379a00000000000000000000000000000000000000000000000000000000081526004018080602001828103825260198152602001807f4163636f756e74206973206e6f7420746865206f776e6572210000000000000081525060200191505060405180910390fd5b6000600a876040518082805190602001908083835b60208310612baf5780518252602082019150602081019050602083039250612b8c565b6001836020036101000a038019825116818451168082178552505050505050905001915050908152602001604051809103902060008781526020019081526020016000206001018054905014612c6d576040517f08c379a00000000000000000000000000000000000000000000000000000000081526004018080602001828103825260138152602001807f47726f7570206973206e6f7420656d707479210000000000000000000000000081525060200191505060405180910390fd5b60006009876040518082805190602001908083835b60208310612ca55780518252602082019150602081019050602083039250612c82565b6001836020036101000a03801982511681845116808217855250505050505090500191505090815260200160405180910390206000878152602001908152602001600020905060008160000160006101000a81548160ff0219169083151502179055506000816001018190555060008160020181905550600081600301819055506000816004018190555060008160050181905550857f9fddb5c4759ed6d8767d12ddab3b42f54681067c72d3d2282ee7769cd3d96dd388600080600080600080604051808060200188151515158152602001878152602001868152602001858152602001848152602001838152602001828103825289818151815260200191508051906020019080838360005b83811015612dce578082015181840152602081019050612db3565b50505050905090810190601f168015612dfb5780820380516001836020036101000a031916815260200191505b509850505050505050505060405180910390a2600194505050506004548114612e8c576040517f08c379a000000000000000000000000000000000000000000000000000000000815260040180806020018281038252601f8152602001807f5265656e7472616e637947756172643a207265656e7472616e742063616c6c0081525060200191505060405180910390fd5b509392505050565b6000612eaa8260036143e490919063ffffffff16565b9050919050565b60086020528060005260406000206000915090508054600181600116156101000203166002900480601f016020809104026020016040519081016040528092919081815260200182805460018160011615610100020316600290048015612f595780601f10612f2e57610100808354040283529160200191612f59565b820191906000526020600020905b815481529060010190602001808311612f3c57829003601f168201915b505050505081565b6000612f6b612413565b612fdd576040517f08c379a00000000000000000000000000000000000000000000000000000000081526004018080602001828103825260208152602001807f4f776e61626c653a2063616c6c6572206973206e6f7420746865206f776e657281525060200191505060405180910390fd5b600160046000828254019250508190555060006004549050826130158173ffffffffffffffffffffffffffffffffffffffff16613ea6565b15613088576040517f08c379a00000000000000000000000000000000000000000000000000000000081526004018080602001828103825260148152602001807f4163636f756e7420697320636f6e74726163742100000000000000000000000081525060200191505060405180910390fd5b6007600860008673ffffffffffffffffffffffffffffffffffffffff1673ffffffffffffffffffffffffffffffffffffffff16815260200190815260200160002060405180828054600181600116156101000203166002900480156131245780601f10613102576101008083540402835291820191613124565b820191906000526020600020905b815481529060010190602001808311613110575b5050915050908152602001604051809103902060006101000a81549073ffffffffffffffffffffffffffffffffffffffff021916905560405180602001604052806000815250600860008673ffffffffffffffffffffffffffffffffffffffff1673ffffffffffffffffffffffffffffffffffffffff16815260200190815260200160002090805190602001906131bc929190615351565b508373ffffffffffffffffffffffffffffffffffffffff167f3d6aba6def46bd8784b0b6505c24d0aa59cd9316e6c5db593d3d8470797d7a3e604051808060200182810382526000815260200160200191505060405180910390a260019250506004548114613293576040517f08c379a000000000000000000000000000000000000000000000000000000000815260040180806020018281038252601f8152602001807f5265656e7472616e637947756172643a207265656e7472616e742063616c6c0081525060200191505060405180910390fd5b50919050565b60006132a3612413565b613315576040517f08c379a00000000000000000000000000000000000000000000000000000000081526004018080602001828103825260208152602001807f4f776e61626c653a2063616c6c6572206973206e6f7420746865206f776e657281525060200191505060405180910390fd5b6001600460008282540192505081905550600060045490508361334d8173ffffffffffffffffffffffffffffffffffffffff16613ea6565b156133c0576040517f08c379a00000000000000000000000000000000000000000000000000000000081526004018080602001828103825260148152602001807f4163636f756e7420697320636f6e74726163742100000000000000000000000081525060200191505060405180910390fd5b846060600860008373ffffffffffffffffffffffffffffffffffffffff1673ffffffffffffffffffffffffffffffffffffffff1681526020019081526020016000208054600181600116156101000203166002900480601f0160208091040260200160405190810160405280929190818152602001828054600181600116156101000203166002900480156134965780601f1061346b57610100808354040283529160200191613496565b820191906000526020600020905b81548152906001019060200180831161347957829003601f168201915b5050505050905060606040518060200160405280600081525090506000826040516020018082805190602001908083835b602083106134ea57805182526020820191506020810190506020830392506134c7565b6001836020036101000a03801982511681845116808217855250505050505090500191505060405160208183030381529060405280519060200120905060006040516020018060000190506040516020818303038152906040528051906020012090508082146135c2576040517f08c379a00000000000000000000000000000000000000000000000000000000081526004018080602001828103825260148152602001807f4163636f756e7420697320616e206f776e65722100000000000000000000000081525060200191505060405180910390fd5b8960078a6040518082805190602001908083835b602083106135f957805182526020820191506020810190506020830392506135d6565b6001836020036101000a038019825116818451168082178552505050505050905001915050908152602001604051809103902060006101000a81548173ffffffffffffffffffffffffffffffffffffffff021916908373ffffffffffffffffffffffffffffffffffffffff16021790555088600860008c73ffffffffffffffffffffffffffffffffffffffff1673ffffffffffffffffffffffffffffffffffffffff16815260200190815260200160002090805190602001906136bd929190615351565b508973ffffffffffffffffffffffffffffffffffffffff167f3d6aba6def46bd8784b0b6505c24d0aa59cd9316e6c5db593d3d8470797d7a3e8a6040518080602001828103825283818151815260200191508051906020019080838360005b8381101561373757808201518184015260208101905061371c565b50505050905090810190601f1680156137645780820380516001836020036101000a031916815260200191505b509250505060405180910390a26001975050505050505060045481146137f2576040517f08c379a000000000000000000000000000000000000000000000000000000000815260040180806020018281038252601f8152602001807f5265656e7472616e637947756172643a207265656e7472616e742063616c6c0081525060200191505060405180910390fd5b5092915050565b613801612413565b613873576040517f08c379a00000000000000000000000000000000000000000000000000000000081526004018080602001828103825260208152602001807f4f776e61626c653a2063616c6c6572206973206e6f7420746865206f776e657281525060200191505060405180910390fd5b61387c81614f5d565b50565b600080600a846040518082805190602001908083835b602083106138b85780518252602082019150602081019050602083039250613895565b6001836020036101000a038019825116818451168082178552505050505050905001915050908152602001604051809103902060008481526020019081526020016000209050806003015481600101805490501491505092915050565b6000600a846040518082805190602001908083835b6020831061394d578051825260208201915060208101905060208303925061392a565b6001836020036101000a03801982511681845116808217855250505050505090500191505090815260200160405180910390206000848152602001908152602001600020905060006007856040518082805190602001908083835b602083106139cb57805182526020820191506020810190506020830392506139a8565b6001836020036101000a038019825116818451168082178552505050505050905001915050908152602001604051809103902060009054906101000a900473ffffffffffffffffffffffffffffffffffffffff1690506000613a2d86866150a1565b905060008090505b8360010180549050811015613cce576000846001018281548110613a5557fe5b9060005260206000200160009054906101000a900473ffffffffffffffffffffffffffffffffffffffff1690508515613ba657600560009054906101000a900473ffffffffffffffffffffffffffffffffffffffff1673ffffffffffffffffffffffffffffffffffffffff1663819f67c98286866040518463ffffffff1660e01b8152600401808473ffffffffffffffffffffffffffffffffffffffff1673ffffffffffffffffffffffffffffffffffffffff1681526020018373ffffffffffffffffffffffffffffffffffffffff1673ffffffffffffffffffffffffffffffffffffffff1681526020018281526020019350505050602060405180830381600087803b158015613b6557600080fd5b505af1158015613b79573d6000803e3d6000fd5b505050506040513d6020811015613b8f57600080fd5b810190808051906020019092919050505050613cc0565b600560009054906101000a900473ffffffffffffffffffffffffffffffffffffffff1673ffffffffffffffffffffffffffffffffffffffff1663819f67c98283866040518463ffffffff1660e01b8152600401808473ffffffffffffffffffffffffffffffffffffffff1673ffffffffffffffffffffffffffffffffffffffff1681526020018373ffffffffffffffffffffffffffffffffffffffff1673ffffffffffffffffffffffffffffffffffffffff1681526020018281526020019350505050602060405180830381600087803b158015613c8357600080fd5b505af1158015613c97573d6000803e3d6000fd5b505050506040513d6020811015613cad57600080fd5b8101908080519060200190929190505050505b508080600101915050613a35565b5060018360000160006101000a81548160ff021916908315150217905550847f1c20cffc601d80d124c17b5c16d7d005c1c42feddf8f7c015392af4d8779d1db876040518080602001828103825283818151815260200191508051906020019080838360005b83811015613d4f578082015181840152602081019050613d34565b50505050905090810190601f168015613d7c5780820380516001836020036101000a031916815260200191505b509250505060405180910390a2505050505050565b6000806009846040518082805190602001908083835b60208310613dca5780518252602082019150602081019050602083039250613da7565b6001836020036101000a0380198251168184511680821785525050505050509050019150509081526020016040518091039020600084815260200190815260200160002090506000600a856040518082805190602001908083835b60208310613e485780518252602082019150602081019050602083039250613e25565b6001836020036101000a03801982511681845116808217855250505050505090500191505090815260200160405180910390206000858152602001908152602001600020905081600201548160040154420311159250505092915050565b600080823b905060008111915050919050565b60006009846040518082805190602001908083835b60208310613ef15780518252602082019150602081019050602083039250613ece565b6001836020036101000a038019825116818451168082178552505050505050905001915050908152602001604051809103902060008481526020019081526020016000209050600082826001015402826005015403905080600560009054906101000a900473ffffffffffffffffffffffffffffffffffffffff1673ffffffffffffffffffffffffffffffffffffffff166370a08231886040518263ffffffff1660e01b8152600401808273ffffffffffffffffffffffffffffffffffffffff1673ffffffffffffffffffffffffffffffffffffffff16815260200191505060206040518083038186803b158015613fe857600080fd5b505afa158015613ffc573d6000803e3d6000fd5b505050506040513d602081101561401257600080fd5b81019080805190602001909291905050501015614097576040517f08c379a00000000000000000000000000000000000000000000000000000000081526004018080602001828103825260138152602001807f496e73756666696369656e742066756e6473210000000000000000000000000081525060200191505060405180910390fd5b505050505050565b6000600a846040518082805190602001908083835b602083106140d757805182526020820191506020810190506020830392506140b4565b6001836020036101000a03801982511681845116808217855250505050505090500191505090815260200160405180910390206000848152602001908152602001600020905060006009856040518082805190602001908083835b602083106141555780518252602082019150602081019050602083039250614132565b6001836020036101000a03801982511681845116808217855250505050505090500191505090815260200160405180910390206000858152602001908152602001600020905042826004018190555060018260020181905550828260030181905550816001018690806001815401808255809150509060018203906000526020600020016000909192909190916101000a81548173ffffffffffffffffffffffffffffffffffffffff021916908373ffffffffffffffffffffffffffffffffffffffff16021790555050600061422b86866150a1565b9050600560009054906101000a900473ffffffffffffffffffffffffffffffffffffffff1673ffffffffffffffffffffffffffffffffffffffff16632efd5b0688836040518363ffffffff1660e01b8152600401808373ffffffffffffffffffffffffffffffffffffffff1673ffffffffffffffffffffffffffffffffffffffff16815260200182815260200192505050602060405180830381600087803b1580156142d657600080fd5b505af11580156142ea573d6000803e3d6000fd5b505050506040513d602081101561430057600080fd5b810190808051906020019092919050505050847f5db80d168a21dab5ad6940ab48e2f76dd2a8d23cb112ad482f66157b61a4b5c687856002015487876004015487600201546040518080602001868152602001858152602001848152602001838152602001828103825287818151815260200191508051906020019080838360005b8381101561439d578082015181840152602081019050614382565b50505050905090810190601f1680156143ca5780820380516001836020036101000a031916815260200191505b50965050505050505060405180910390a250505050505050565b60008073ffffffffffffffffffffffffffffffffffffffff168273ffffffffffffffffffffffffffffffffffffffff16141561446b576040517f08c379a00000000000000000000000000000000000000000000000000000000081526004018080602001828103825260228152602001806154ec6022913960400191505060405180910390fd5b8260000160008373ffffffffffffffffffffffffffffffffffffffff1673ffffffffffffffffffffffffffffffffffffffff16815260200190815260200160002060009054906101000a900460ff16905092915050565b6000600a836040518082805190602001908083835b602083106144fa57805182526020820191506020810190506020830392506144d7565b6001836020036101000a0380198251168184511680821785525050505050509050019150509081526020016040518091039020600083815260200190815260200160002060000160009054906101000a900460ff16905092915050565b6000600a846040518082805190602001908083835b6020831061458f578051825260208201915060208101905060208303925061456c565b6001836020036101000a03801982511681845116808217855250505050505090500191505090815260200160405180910390206000848152602001908152602001600020905081156147fc5760008090505b81600301548110156147fa5760008260010182815481106145fe57fe5b9060005260206000200160009054906101000a900473ffffffffffffffffffffffffffffffffffffffff1690506060818787604051602001808473ffffffffffffffffffffffffffffffffffffffff1673ffffffffffffffffffffffffffffffffffffffff16815260200180602001838152602001828103825284818151815260200191508051906020019080838360005b838110156146ab578082015181840152602081019050614690565b50505050905090810190601f1680156146d85780820380516001836020036101000a031916815260200191505b50945050505050604051602081830303815290604052905060008180519060200120905060008160001c9050600660009054906101000a900473ffffffffffffffffffffffffffffffffffffffff1673ffffffffffffffffffffffffffffffffffffffff16635d7b075885836040518363ffffffff1660e01b8152600401808373ffffffffffffffffffffffffffffffffffffffff1673ffffffffffffffffffffffffffffffffffffffff16815260200182815260200192505050602060405180830381600087803b1580156147ad57600080fd5b505af11580156147c1573d6000803e3d6000fd5b505050506040513d60208110156147d757600080fd5b8101908080519060200190929190505050505050505080806001019150506145e1565b505b827fc22f40849defe02d6e35695432d85125dc604ca6384911cb6cc66eca42e4588d858360010180549050846003015486604051808060200185815260200184815260200183151515158152602001828103825286818151815260200191508051906020019080838360005b83811015614883578082015181840152602081019050614868565b50505050905090810190601f1680156148b05780820380516001836020036101000a031916815260200191505b509550505050505060405180910390a260008160000160006101000a81548160ff0219169083151502179055506000816004018190555060008160020181905550600081600301819055506000816001018161490c91906153d1565b50827f1957d14d2e115314ff5fd7baee438bcbbb83a25f6925349b0acdd9410dd1ea90856040518080602001828103825283818151815260200191508051906020019080838360005b83811015614970578082015181840152602081019050614955565b50505050905090810190601f16801561499d5780820380516001836020036101000a031916815260200191505b509250505060405180910390a250505050565b6149c48160016151b990919063ffffffff16565b8073ffffffffffffffffffffffffffffffffffffffff167fcd265ebaf09df2871cc7bd4133404a235ba12eff2041bb89d9c714a2621c7c7e60405160405180910390a250565b614a1e81600161527690919063ffffffff16565b8073ffffffffffffffffffffffffffffffffffffffff167f6719d08c1888103bea251a4ed56406bd0c3e69723c8a1686e017e7bbe159b6f860405160405180910390a250565b600080600a846040518082805190602001908083835b60208310614a9d5780518252602082019150602081019050602083039250614a7a565b6001836020036101000a038019825116818451168082178552505050505050905001915050908152602001604051809103902060008481526020019081526020016000209050600080905060008090505b8260010180549050811015614b7f578115614b0857614b7f565b826001018181548110614b1757fe5b9060005260206000200160009054906101000a900473ffffffffffffffffffffffffffffffffffffffff1673ffffffffffffffffffffffffffffffffffffffff168773ffffffffffffffffffffffffffffffffffffffff161491508080600101915050614aee565b508015614bf4576040517f08c379a00000000000000000000000000000000000000000000000000000000081526004018080602001828103825260118152602001807f416c726561647920696e2067726f75702100000000000000000000000000000081525060200191505060405180910390fd5b50509392505050565b6000600a836040518082805190602001908083835b60208310614c355780518252602082019150602081019050602083039250614c12565b6001836020036101000a038019825116818451168082178552505050505050905001915050908152602001604051809103902060008381526020019081526020016000209050806001018490806001815401808255809150509060018203906000526020600020016000909192909190916101000a81548173ffffffffffffffffffffffffffffffffffffffff021916908373ffffffffffffffffffffffffffffffffffffffff1602179055505080600201600081548092919060010191905055506000614d0384846150a1565b9050600560009054906101000a900473ffffffffffffffffffffffffffffffffffffffff1673ffffffffffffffffffffffffffffffffffffffff16632efd5b0686836040518363ffffffff1660e01b8152600401808373ffffffffffffffffffffffffffffffffffffffff1673ffffffffffffffffffffffffffffffffffffffff16815260200182815260200192505050602060405180830381600087803b158015614dae57600080fd5b505af1158015614dc2573d6000803e3d6000fd5b505050506040513d6020811015614dd857600080fd5b810190808051906020019092919050505050827fbd2a5409c827f24953dde69f5ca2f3f3fc2c69cfa1137fcf79c390361458aaa585846001018054905085600301546040518080602001848152602001838152602001828103825285818151815260200191508051906020019080838360005b83811015614e66578082015181840152602081019050614e4b565b50505050905090810190601f168015614e935780820380516001836020036101000a031916815260200191505b5094505050505060405180910390a25050505050565b614ebd81600361527690919063ffffffff16565b8073ffffffffffffffffffffffffffffffffffffffff167f6ae172837ea30b801fbfcdd4108aa1d5bf8ff775444fd70256b44e6bf3dfc3f660405160405180910390a250565b614f178160036151b990919063ffffffff16565b8073ffffffffffffffffffffffffffffffffffffffff167fe94479a9f7e1952cc78f2d6baab678adc1b772d936c6583def489e524cb6669260405160405180910390a250565b600073ffffffffffffffffffffffffffffffffffffffff168173ffffffffffffffffffffffffffffffffffffffff161415614fe3576040517f08c379a00000000000000000000000000000000000000000000000000000000081526004018080602001828103825260268152602001806154756026913960400191505060405180910390fd5b8073ffffffffffffffffffffffffffffffffffffffff166000809054906101000a900473ffffffffffffffffffffffffffffffffffffffff1673ffffffffffffffffffffffffffffffffffffffff167f8be0079c531659141344cd1fd0a4f28419497f9722a3daafe3b4186f6b6457e060405160405180910390a3806000806101000a81548173ffffffffffffffffffffffffffffffffffffffff021916908373ffffffffffffffffffffffffffffffffffffffff16021790555050565b6000806009846040518082805190602001908083835b602083106150da57805182526020820191506020810190506020830392506150b7565b6001836020036101000a0380198251168184511680821785525050505050509050019150509081526020016040518091039020600084815260200190815260200160002090506000600a856040518082805190602001908083835b602083106151585780518252602082019150602081019050602083039250615135565b6001836020036101000a03801982511681845116808217855250505050505090500191505090815260200160405180910390206000858152602001908152602001600020905080600301548260010154028260050154039250505092915050565b6151c382826143e4565b615218576040517f08c379a00000000000000000000000000000000000000000000000000000000081526004018080602001828103825260218152602001806154cb6021913960400191505060405180910390fd5b60008260000160008373ffffffffffffffffffffffffffffffffffffffff1673ffffffffffffffffffffffffffffffffffffffff16815260200190815260200160002060006101000a81548160ff0219169083151502179055505050565b61528082826143e4565b156152f3576040517f08c379a000000000000000000000000000000000000000000000000000000000815260040180806020018281038252601f8152602001807f526f6c65733a206163636f756e7420616c72656164792068617320726f6c650081525060200191505060405180910390fd5b60018260000160008373ffffffffffffffffffffffffffffffffffffffff1673ffffffffffffffffffffffffffffffffffffffff16815260200190815260200160002060006101000a81548160ff0219169083151502179055505050565b828054600181600116156101000203166002900490600052602060002090601f016020900481019282601f1061539257805160ff19168380011785556153c0565b828001600101855582156153c0579182015b828111156153bf5782518255916020019190600101906153a4565b5b5090506153cd91906153fd565b5090565b8154818355818111156153f8578183600052602060002091820191016153f791906153fd565b5b505050565b61541f91905b8082111561541b576000816000905550600101615403565b5090565b9056fe4163636f756e74206973206f776e6572206f66207468697320627573696e65737321506175736572526f6c653a2063616c6c657220646f6573206e6f742068617665207468652050617573657220726f6c654f776e61626c653a206e6577206f776e657220697320746865207a65726f20616464726573734d696e746572526f6c653a2063616c6c657220646f6573206e6f74206861766520746865204d696e74657220726f6c65526f6c65733a206163636f756e7420646f6573206e6f74206861766520726f6c65526f6c65733a206163636f756e7420697320746865207a65726f2061646472657373a165627a7a72305820b75ac5e61899c939ec6d6e8e3f626eea0eb06e453ca19744ee282ee88d6efcf60029526f6c65733a206163636f756e7420697320746865207a65726f2061646472657373",
  "source": "pragma solidity ^0.5.0;\n\nimport \"openzeppelin-solidity/contracts/math/SafeMath.sol\";\nimport \"./Base.sol\";\nimport \"./Coin.sol\";\nimport \"./Discount.sol\";\n\ncontract Controller is Base {\n\n    using SafeMath for uint256;\n\n    struct Rule {\n        bool active;\n        uint256 discount;\n        uint256 joinTime;\n        uint256 minMembers;\n        uint256 maxMembers;\n        uint256 price;\n    }\n\n    struct Group {\n        bool evaluated;\n        address[] members;\n        uint256 numMembers;\n        uint256 memberGoal;\n        uint256 startTime;\n    }\n\n    Coin private _coin;\n    Discount private _discount;\n\n    // _owners[business] => owner;\n    // businesses[owner] => business;\n    // rules[business][product] => rule\n    // groups[business][product] => group\n    mapping(string => address) private _owners;\n    mapping(address => string) public businesses;\n    mapping(string => mapping(uint256 => Rule)) public rules;\n    mapping(string => mapping(uint256 => Group)) public groups;\n\n    event OwnerSet(\n        address indexed account,\n        string business\n    );\n    event RuleSet(\n        string business,\n        uint256 indexed product,\n        bool active,\n        uint256 discount,\n        uint256 joinTime,\n        uint256 minMembers,\n        uint256 maxMembers,\n        uint256 price\n    );\n    event GroupStarted(\n        string business,\n        uint256 indexed product,\n        uint256 numMembers,\n        uint256 memberGoal,\n        uint256 startTime,\n        uint256 joinTime\n    );\n    event GroupJoined(\n        string business,\n        uint256 indexed product,\n        uint256 numMembers,\n        uint256 memberGoal\n    );\n    event GroupEvaluated(\n        string business,\n        uint256 indexed product\n    );\n    event GroupEnded(\n        string business,\n        uint256 indexed product,\n        uint256 numMembers,\n        uint256 memberGoal,\n        bool success\n    );\n    event GroupReset(\n        string business,\n        uint256 indexed product\n    );\n    event EscrowCoin(\n        address indexed from,\n        uint256 value\n    );\n    event UnescrowCoin(\n        address indexed from,\n        address indexed to,\n        uint256 value\n    );\n    event MintDiscount(\n        address indexed to,\n        uint256 indexed tokenId\n    );\n\n    constructor(address payable coin, address payable discount)\n        public\n        addressIsNotContract(msg.sender)\n    {\n        _coin = Coin(coin);\n        _discount = Discount(discount);\n    }\n\n    modifier isAuthorized(address account, string memory business) {\n        require(_owners[business] == account, \"Account is not the owner!\");\n        _;\n    }\n\n    modifier isNotOwner(address account) {\n        string memory business = businesses[account];\n        string memory empty = \"\";\n        bytes32 businessBytes = keccak256(abi.encodePacked(business));\n        bytes32 emptyBytes = keccak256(abi.encodePacked(\"\"));\n        require(businessBytes == emptyBytes, \"Account is an owner!\");\n        _;\n    }\n\n    function getGroupSize(\n        string memory business,\n        uint256 product\n    )\n        public\n        view\n        onlyOwner\n        returns (uint256)\n    {\n        return groups[business][product].members.length;\n    }\n\n    function setOwner(\n        address account,\n        string memory business\n    )\n        public\n        onlyOwner\n        nonReentrant\n        addressIsNotContract(account)\n        isNotOwner(account)\n        returns (bool)\n    {\n        _owners[business] = account;\n        businesses[account] = business;\n        emit OwnerSet(account, business);\n        return true;\n    }\n\n    function deleteOwner(\n        address account\n    )\n        public\n        onlyOwner\n        nonReentrant\n        addressIsNotContract(account)\n        returns (bool)\n    {\n        delete _owners[businesses[account]];\n        businesses[account] = \"\";\n        emit OwnerSet(account, \"\");\n        return true;\n    }\n\n    function setRule(\n        address account,\n        string memory business,\n        uint256 product,\n        bool active,\n        uint256 discount,\n        uint256 joinTime,\n        uint256 minMembers,\n        uint256 maxMembers,\n        uint256 price\n    )\n        public\n        onlyOwner\n        nonReentrant\n        isAuthorized(account, business)\n        returns (bool)\n    {\n        require(groups[business][product].members.length == 0, \"Group is not empty!\");\n        Rule storage rule = rules[business][product];\n        rule.active = active;\n        rule.discount = discount;\n        rule.joinTime = joinTime;\n        rule.minMembers = minMembers;\n        rule.maxMembers = maxMembers;\n        rule.price = price;\n        emit RuleSet(\n            business,\n            product,\n            active,\n            discount,\n            joinTime,\n            minMembers,\n            maxMembers,\n            price\n        );\n        return true;\n    }\n\n    function deleteRule(\n        address account,\n        string memory business,\n        uint256 product\n    )\n        public\n        onlyOwner\n        nonReentrant\n        isAuthorized(account, business)\n        returns (bool)\n    {\n      require(groups[business][product].members.length == 0, \"Group is not empty!\");\n      Rule storage rule = rules[business][product];\n      rule.active = false;\n      rule.discount = 0;\n      rule.joinTime = 0;\n      rule.minMembers = 0;\n      rule.maxMembers = 0;\n      rule.price = 0;\n      emit RuleSet(\n          business,\n          product,\n          false,\n          0,\n          0,\n          0,\n          0,\n          0\n      );\n      return true;\n    }\n\n    function startGroup(\n        address account,\n        string memory business,\n        uint256 product,\n        uint256 memberGoal\n    )\n        public\n        nonReentrant\n        onlyOwner\n        addressIsNotContract(account)\n        returns (bool)\n    {\n        Rule storage rule = rules[business][product];\n        Group storage group = groups[business][product];\n        require(rule.active, \"Rule is not active!\");\n        require(memberGoal >= rule.minMembers, \"Goal is too low!\");\n        require(memberGoal <= rule.maxMembers, \"Goal is too high!\");\n        require(group.members.length == 0, \"Group is not empty!\");\n        require(_owners[business] != account, \"Account is owner of this business!\");\n        _sufficientFunds(account, business, product, memberGoal);\n        _startGroup(account, business, product, memberGoal);\n        return true;\n    }\n\n    function joinGroup(\n        address account,\n        string memory business,\n        uint256 product\n    )\n        public\n        nonReentrant\n        onlyOwner\n        addressIsNotContract(account)\n        returns (bool)\n    {\n        Group storage group = groups[business][product];\n        require(group.members.length > 0, \"Group is not empty!\");\n        require(group.members.length < group.memberGoal, \"Group is full!\");\n        require(_isLive(business, product), \"Group has expired!\");\n        require(_owners[business] != account, \"Account is owner of this business!\");\n        _notMember(account, business, product);\n        _sufficientFunds(account, business, product, group.memberGoal);\n        _joinGroup(account, business, product);\n        return true;\n    }\n\n    function evaluateGroup(\n        string memory business,\n        uint256 product\n    )\n        public\n        onlyOwner\n        nonReentrant\n        returns (bool)\n    {\n        if (_isFull(business, product)) {\n            _evaluateGroup(business, product, true);\n        } else if (!(_isLive(business, product))) {\n            _evaluateGroup(business, product, false);\n        } else {\n            revert(\"Group is still live!\");\n        }\n        return true;\n    }\n\n    function endGroup(\n        string memory business,\n        uint256 product\n    )\n        public\n        onlyOwner\n        nonReentrant\n        returns (bool)\n    {\n        if (_isEvaluated(business, product)) {\n            if (_isFull(business, product)) {\n                _endGroup(business, product, true);\n            } else {\n                _endGroup(business, product, false);\n            }\n        } else {\n            revert(\"Group is still live!\");\n        }\n        return true;\n    }\n\n    function _startGroup(\n        address account,\n        string memory business,\n        uint256 product,\n        uint256 memberGoal\n    )\n        internal\n    {\n        Group storage group = groups[business][product];\n        Rule storage rule = rules[business][product];\n        group.startTime = now;\n        group.numMembers = 1;\n        group.memberGoal = memberGoal;\n        group.members.push(account);\n        uint256 discountedPrice = _discountedPrice(business, product);\n        _coin.escrow(account, discountedPrice);\n\n        emit GroupStarted(\n            business,\n            product,\n            group.numMembers,\n            memberGoal,\n            group.startTime,\n            rule.joinTime\n        );\n    }\n\n    function _joinGroup(\n        address account,\n        string memory business,\n        uint256 product\n    )\n        internal\n    {\n        Group storage group = groups[business][product];\n        group.members.push(account);\n        group.numMembers++;\n        uint256 discountedPrice = _discountedPrice(business, product);\n        _coin.escrow(account, discountedPrice);\n\n        emit GroupJoined(\n            business,\n            product,\n            group.members.length,\n            group.memberGoal\n        );\n    }\n\n    function _evaluateGroup(\n        string memory business,\n        uint256 product,\n        bool success\n    )\n        internal\n    {\n        Group storage group = groups[business][product];\n        address merchant = _owners[business];\n        uint256 discountedPrice = _discountedPrice(business, product);\n        for (uint256 i = 0; i < group.members.length; i++) {\n            address buyer = group.members[i];\n            if (success) {\n                _coin.unescrow(buyer, merchant, discountedPrice);\n            } else {\n                _coin.unescrow(buyer, buyer, discountedPrice);\n            }\n        }\n        group.evaluated = true;\n        emit GroupEvaluated(business, product);\n    }\n\n    function _endGroup(\n        string memory business,\n        uint256 product,\n        bool success\n    )\n        internal\n    {\n        Group storage group = groups[business][product];\n        if (success) {\n            for (uint256 i = 0; i < group.memberGoal; i++) {\n                address buyer = group.members[i];\n                bytes memory encoded = abi.encode(buyer, business, product);\n                bytes32 hashed = keccak256(encoded);\n                uint256 tokenId = uint256(hashed);\n                _discount.controllerMint(buyer, tokenId);\n            }\n        }\n        emit GroupEnded(\n            business,\n            product,\n            group.members.length,\n            group.memberGoal,\n            success\n        );\n        group.evaluated = false;\n        group.startTime = 0;\n        group.numMembers = 0;\n        group.memberGoal = 0;\n        group.members.length = 0;\n        emit GroupReset(business, product);\n    }\n\n    function _discountedPrice(\n        string memory business,\n        uint256 product\n    )\n        internal\n        view\n        returns (uint256)\n    {\n        Rule storage rule = rules[business][product];\n        Group storage group = groups[business][product];\n        return (rule.price - (rule.discount * group.memberGoal));\n    }\n\n    function _isLive(\n        string memory business,\n        uint256 product\n    )\n        internal\n        view\n        returns (bool)\n    {\n        Rule storage rule = rules[business][product];\n        Group storage group = groups[business][product];\n        return ((now - group.startTime) <= rule.joinTime);\n    }\n\n    function _isFull(\n        string memory business,\n        uint256 product\n    )\n        internal\n        view\n        returns (bool)\n    {\n        Group storage group = groups[business][product];\n        return (group.members.length == group.memberGoal);\n    }\n\n    function _isEvaluated(\n        string memory business,\n        uint256 product\n    )\n        internal\n        view\n        returns (bool)\n    {\n        return groups[business][product].evaluated;\n    }\n\n    function _sufficientFunds(\n        address account,\n        string memory business,\n        uint256 product,\n        uint256 memberGoal\n    )\n        internal\n        view\n    {\n        Rule storage rule = rules[business][product];\n        uint256 discountedPrice = (rule.price - (rule.discount * memberGoal));\n        require(_coin.balanceOf(account) >= discountedPrice, \"Insufficient funds!\");\n    }\n\n    function _notMember(\n        address account,\n        string memory business,\n        uint256 product\n    )\n        internal\n        view\n        returns (bool)\n    {\n        Group storage group = groups[business][product];\n        bool exists = false;\n        for (uint256 i = 0; i < group.members.length; i++) {\n            if (exists)\n                break;\n            exists = (account == group.members[i]);\n        }\n        require(!(exists), \"Already in group!\");\n    }\n}\n",
  "sourcePath": "/Users/bentd/Work/Ventures/potluck/potluck-ethereum/contracts/Controller.sol",
  "compiler": {
    "name": "solc",
    "version": "0.5.8+commit.23d335f2.Emscripten.clang"
  },
  "schemaVersion": "3.0.12",
  "updatedAt": "2019-08-22T21:24:29.786Z",
  "devdoc": {
    "methods": {
      "isOwner()": {
        "details": "Returns true if the caller is the current owner."
      },
      "owner()": {
        "details": "Returns the address of the current owner."
      },
      "pause()": {
        "details": "Called by a pauser to pause, triggers stopped state."
      },
      "paused()": {
        "details": "Returns true if the contract is paused, and false otherwise."
      },
      "renounceOwnership()": {
        "details": "Leaves the contract without owner. It will not be possible to call `onlyOwner` functions anymore. Can only be called by the current owner.     * > Note: Renouncing ownership will leave the contract without an owner, thereby removing any functionality that is only available to the owner."
      },
      "transferOwnership(address)": {
        "details": "Transfers ownership of the contract to a new account (`newOwner`). Can only be called by the current owner."
      },
      "unpause()": {
        "details": "Called by a pauser to unpause, returns to normal state."
      }
    }
  },
  "userdoc": {
    "methods": {}
  }
}